:020000040000FA
:060000000A128A110C280F
:10000800FE00030EF1000A08F2000A128A115029B4
:100018000A128A110F28F801F901FA0183010A125C
:100028008A11252983120313A00029289F131F135F
:1000380085289F131F1785289F171F1385289F172B
:100048001F1785289F131F1785282008F600F7011A
:100058007708003A0319312826287608003A031948
:100068001A28013A03191D28033A03192028013ACE
:100078000319232826281F119F111F129F12B92820
:100088001F159F111F129F12B9281F119F151F12AC
:100098009F12B9281F159F151F129F12B9281F11EB
:1000A8009F111F169F12B9281F159F111F169F1207
:1000B800B9281F119F151F169F12B9281F159F15C4
:1000C8001F169F12B9281F119F111F129F16B928BA
:1000D8001F159F111F129F16B9281F119F151F1258
:1000E8009F16B9281F159F151F129F16B9281F1193
:1000F8009F111F169F16B9281F159F111F169F16AF
:10010800B9287308F600F7017708003A03198D2813
:10011800B9287608003A03193F28013A03194428F8
:10012800033A03194928013A03194E28073A0319D3
:100138005328013A03195828033A03195D28013A4C
:10014800031962280F3A03196728013A03196C2822
:10015800033A03197128013A03197628073A031953
:100168007B28013A03198028B9281F147403031D3A
:10017800BE28BF28C5280C13831603130C170B17AA
:100188008B17750C83160313031C9F1303189F17F3
:100198001F129F12831203139F1408008312031364
:1001A80086011430F7007930F600F60BD928F70BE2
:1001B800D928DE2830300A128A1186210A128A11BB
:1001C8000730F7007D30F600F60BE828F70BE82833
:1001D80030300A128A1186210A128A113530F60047
:1001E800F60BF42830300A128A1186210A128A1175
:1001F8003530F600F60BFE2802300A128A118621E5
:100208000A128A1138300A128A1186210A128A11B2
:1002180008300A128A1186210A128A1101300A123C
:100228008A1186210A128A1106300A128A11862139
:100238000A128A110C300A128A1186210A128A11AE
:1002480008000A128A116F210A128A1183120313F5
:1002580008160A128A11D2200A128A110A128A1161
:10026800A3210A128A11F301F401F40AF5010130FD
:100278000A128A1116200A128A117803031D4529C9
:10028800462941290A128A119C210A128A11F80169
:1002980041290A128A110C28831203130C1F5529AD
:1002A800562968290C13F801F80A1F195C295D29D9
:1002B80063291E08F0007008FA001F1568291E0837
:1002C800F0007008F9001F1172088A00710E83008F
:1002D800FE0E7E0E09000130831603138500831677
:1002E80003178801081488148901831603138601EB
:1002F80083120313860183160313880183120313E1
:1003080088010800F5008312031388127508860017
:1003180088178E298F29000083120313881307304A
:10032800F4007D30F300F30B9729F40B97290800AC
:100338009D299E290000831203139F140800013091
:0C0348000A128A1186210A128A1108008C
:04400E00D6E0FFFFFA
:00000001FF
