:020000040000FA
:060000000A128A110C280F
:10000800FE00030EF1000A08F2000A168A15672A94
:100018000A128A110F2883120313EF018313CC30BD
:100028008400E4300A168A153F210A128A118301D6
:100038000A128A110B2E831603134308F60042088E
:10004800F5004108F4004008F3000030FA000030E1
:10005800F9000030F8000030F7000A168A151B2353
:100068000A128A11031839283A28E228831603133A
:10007800430883120313D80083160313420883121C
:100088000313D70083160313410883120313D60002
:1000980083160313400883120313D5000A168A1126
:1000A80004200A128A1183120313580857045604AD
:1000B8005504031D60286128E228831603133F08AE
:1000C800803AFF0080307F02031D6C2802303E0218
:1000D800031C6F287028E228831603133908F600DA
:1000E8003808F5003708F4003608F3004030FA0005
:1000F8008930F9007030F8005F30F7000A168A1569
:1001080025250A128A1103188A288B289428F73083
:1001180083160313BE070318BF0AFF30BF079C28C6
:10012800F83083160313BE070318BF0AFF30BF0752
:100138003E080A128A159D240A128A118312031393
:10014800450883160313B900831203134408831662
:100158000313B80083120313430883160313B7006D
:1001680083120313420883160313B6004308F600EC
:100178004208F5004108F4004008F3003908FA0085
:100188003808F9003708F8003608F7000A168A1503
:1001980042270A128A11760883160313BD007508D0
:1001A800BC007408BB007308BA000030C3000030FC
:1001B800C2000030C1000030C00048298316031374
:1001C800430883120313D8008316031342088312CB
:1001D8000313D70083160313410883120313D600B1
:1001E80083160313400883120313D5000A168A11D5
:1001F80004200A128A118312031358088316031362
:10020800BD0083120313570883160313BC0083121F
:100218000313560883160313BB00831203135508F0
:1002280083160313BA003D08F6003C08F5003B08A6
:10023800F4003A08F30000300A168A15C9250A1294
:100248008A11760883160313A3007508A2007408A0
:10025800A1007308A0004308A7004208A6004108AF
:10026800A5004008A4000A168A156B230A128A11F1
:10027800831603132308C3002208C2002108C10003
:100288002008C000BE01BF01C701C70A4708A8006F
:1002980001300310A80DFF3E031D4D290310280D42
:1002A800693E84000A168A150A200A128A11A900D2
:1002B8000A168A150A200A128A11AA000A168A152D
:1002C8000A200A128A11AB000A168A150A200A1295
:1002D8008A11AC002C083D02031D7C292B083C0226
:1002E800031D7C292A083B02031D7C2929083A02A0
:1002F80003187F29802981298B290130A800280823
:10030800C7070A304706031D8A298B294A29470847
:100318004507A80046080318460AA9003E0828070A
:10032800AA003F0803183F0A2907AB002A08B402AD
:100338002B08031CB503B502450846040319A52973
:10034800A629AC29FF30B4070318B50AFF30B50752
:1003580003303205A80000303305A9002808290415
:100368000319B729B829CD29FF30B4070318B50AEE
:10037800FF30B507CD29203083160313A8004408A1
:1003880084002808831380000130A8002808C407C7
:10039800B8293508803AFF0080307F02031DD6292E
:1003A800013034020318D929DA29BF29033083160A
:1003B80003133205A80000303305A90028082904D2
:1003C8000319E729E8297A2A2D30A800440884006F
:1003D8002808831380000130A8002808C4077A2A57
:1003E8004708A80001300310A80DFF3E031DF72998
:1003F8000310280D693E84000A168A150A200A127D
:100408008A11F3000A168A150A200A128A11F400C2
:100418000A168A150A200A128A11F5000A168A1580
:100428000A200A128A11F6003D08FA003C08F90071
:100438003B08F8003A08F7000A168A15BD240A1284
:100448008A11760883160313B9007508B800740872
:10045800B7007308B600003083120313A9000030F8
:10046800A8000030A7000A30A60083160313390835
:1004780083120313AD008316031338088312031382
:10048800AC0083160313370883120313AB008316DB
:100498000313360883120313AA000A168A150E24BA
:1004A8000A128A1183120313290883160313B90049
:1004B80083120313280883160313B8008312031347
:1004C800270883160313B70083120313260883161D
:1004D8000313B6003608303EA800440884002808F4
:1004E800831380000130A8002808C4070130C70220
:1004F800470A031D802A812AF429952A3030831659
:100508000313A800440884002808831380000130DE
:10051800A8002808C407FF30BE070318BF0AFF3029
:10052800BF073F08803AFF0080307F02031D9E2AE4
:1005380001303E020318A12AA22A822A8316031335
:100548004608803AFF0080307F02031DAD2A09303B
:100558004502031CB02AB12AB82A083083160313AF
:10056800A8002808C700BE2A831603134508A80058
:100578002808C7004708A800A9012808C5022908B3
:10058800031CC603C60247080319CB2ACC2AD72A5C
:100598002E30A80044088400280883138000013006
:1005A800A8002808C40747080A128A159D240A12B9
:1005B8008A1183120313450883160313B0008312AC
:1005C8000313440883160313AF008312031343086D
:1005D80083160313AE008312031342088316031312
:1005E800AD00300883120313AF00831603132F08DE
:1005F80083120313AE00831603132E08831203130A
:10060800AD00831603132D0883120313AC00831661
:100618000313430883120313AB0083160313420822
:1006280083120313AA0083160313410883120313CA
:10063800A90083160313400883120313A8000A12A3
:100648008A153C210A128A11831203132B08D80039
:100658002A08D7002908D6002808D5000A168A11C2
:1006680004200A128A1183120313580883160313ED
:10067800BD0083120313570883160313BC008312AB
:100688000313560883160313BB008312031355087C
:1006980083160313BA00312C4708A8000130031051
:1006A800A80DFF3E031D532B0310280D693E84003F
:1006B8000A168A150A200A128A11F3000A168A15E0
:1006C8000A200A128A11F4000A168A150A200A1248
:1006D8008A11F5000A168A150A200A128A11F600EC
:1006E8003D08FA003C08F9003B08F8003A08F70012
:1006F8000A168A15BD240A128A117608831603136E
:10070800B9007508B8007408B7007308B60000305F
:1007180083120313A9000030A8000030A7000A3094
:10072800A60083160313390883120313AD0083163A
:100738000313380883120313AC0083160313370816
:1007480083120313AB0083160313360883120313B3
:10075800AA000A168A150E240A128A118312031394
:10076800290883160313B900831203132808831674
:100778000313B80083120313270883160313B70063
:1007880083120313260883160313B6003608303E77
:10079800A800440884002808831380000130A800BA
:1007A8002808C4074708A80001300310A80DFF3E19
:1007B800031DD92B0310280D693E84000A168A15DB
:1007C8000A200A128A1183120313A6000A168A1530
:1007D8000A200A128A11A7000A168A150A200A1284
:1007E8008A11A8000A168A150A200A128A11A90075
:1007F800831603133D0883120313AD0083160313F6
:100808003C0883120313AC00831603133B088312BE
:100818000313AB00831603133A0883120313AA00C9
:100828000A168A150E240A128A118312031329083C
:1008380083160313BD0083120313280883160313BA
:10084800BC0083120313270883160313BB0083120B
:100858000313260883160313BA000130C702470A98
:10086800031D372C382C502B4A2C3030A800440854
:1008780084002808831380000130A8002808C407D2
:10088800FF30C5070318C60AFF30C60745084604E7
:10089800031D4F2C502C392CEE2D31088400831366
:1008A8000008A800840A0008A9002808BA00290836
:1008B800BB000030BB1BFF30BC00BD000230A800ED
:1008C8002808B107BD1F692C6A2C792C0330B204A3
:1008D8000030B304BA09BB09BC09BD09BA0A031937
:1008E800BB0A0319BC0A0319BD0A45084604031DBF
:1008F8007E2C7F2C8D2C3D083C043B043A04031DC0
:10090800862C872C8D2C0130C5070318C60A0030A9
:10091800C607C701C70A4708A80001300310A80D79
:10092800FF3E031D922C0310280D693E84000A1611
:100938008A150A200A128A11A9000A168A150A209D
:100948000A128A11AA000A168A150A200A128A119E
:10095800AB000A168A150A200A128A11AC002C0864
:100968003D02031DC12C2B083C02031DC12C2A0883
:100978003B02031DC12C29083A020318C42CC52CBC
:10098800C62CD02C0130A8002808C7070A30470613
:10099800031DCF2CD02C8F2C4608803A803C031D99
:1009A800D72C450847020318DA2CDB2CE22C8316D7
:1009B80003134508A8002808C700FA2C8316031358
:1009C8004608803AA80080302802031DED2C47080D
:1009D80045020318F02CF12CFA2C83160313470850
:1009E800A800A9012808C5002908C6008316031312
:1009F800340835040319012D022D142D0330320556
:100A0800A80000303305A9002808290403190D2D72
:100A18000E2D142DFF30B4070318B50AFF30B507A3
:100A2800331F172D182D332D4608803AA800350896
:100A3800803A2802031D222D340845020318252D6B
:100A4800262D2F2D831603134508B4024608031CD0
:100A5800B503B502332D83160313B401B501350868
:100A6800803A803C031D3A2D3408470203183D2D77
:100A78003E2D4A2D831603134708A800A90128080C
:100A8800B4022908031CB503B5024E2D83160313BF
:100A9800B401B501340835040319532D542D6B2DB9
:100AA8002030A800440884002808831380000130FF
:100AB800A8002808C407FF30B4070318B50AFF3098
:100AC800B50734083504031D6A2D6B2D542D0330EA
:100AD8003205A80000303305A900280829040319A5
:100AE800762D772DE02D2D30A800440884002808A5
:100AF800831380000130A8002808C407E02D0030C7
:100B080083120313A9000030A8000030A7000A30A0
:100B1800A600831603134508A80001300310A80D8A
:100B2800FF3E031D922D0310280D693E84000A160E
:100B38008A150A200A128A11F3000A168A150A2051
:100B48000A128A11F4000A168A150A200A128A1152
:100B5800F5000A168A150A200A128A11F6003D08BD
:100B6800FA003C08F9003B08F8003A08F7000A16B2
:100B78008A15BD240A128A11760883120313AD0060
:100B88007508AC007408AB007308AA000A168A1529
:100B98000E240A128A11831203132608303E831684
:100BA8000313A9002908C7004708A80044088400BF
:100BB8002808831380007E2DFF30C5070318C60A56
:100BC800FF30C607450A031DED2D460A031DED2D0E
:100BD800EE2D832D013083120313EA07FF306A07D5
:100BE80084000A168A150A200A128A11831603132A
:100BF800A8002808C7004708031D032E062E0A165A
:100C08008A111F2D440884008313800108000A16E6
:100C18008A1590210A128A110A168A15BB230A120C
:100C28008A11F301F30AF401F40AF50101300A12FA
:100C38008A1578200A128A11F30101300A168A15DA
:100C48003B220A128A11831603135603031D2D2E05
:100C58002E2E362E0A128A1500200A128A118316A1
:100C68000313D6012B30831203136F06031D3D2E89
:100C78003E2E4A2E013083160313D4070318D50AD3
:100C88000030D50783120313EF01592E2D306F065C
:100C9800031D4F2E502E592EFF3083160313D407F1
:100CA8000318D50AFF30D507462E6F08831603139D
:100CB800C800C9014808D4004908D5003C3083124F
:100CC8000313AB00A030AA00A030A900A130A800EF
:100CD800831603135808C800C901CA01CB014B0881
:100CE800F6004A08F5004908F4004808F300013006
:100CF8000A168A15C9250A128A117608831203135F
:100D0800AF007508AE007408AD007308AC000A1295
:100D18008A153C210A128A11831203132B088316A1
:100D28000313D300831203132A0883160313D20074
:100D380083120313290883160313D10083120313A4
:100D4800280883160313D0003C3083120313AB002A
:100D5800A030AA00A030A900A130A8008316031370
:100D68005708C800C901CA01CB014B08F6004A0858
:100D7800F5004908F4004808F30001300A168A15FE
:100D8800C9250A128A11760883120313AF00750861
:100D9800AE007408AD007308AC000A128A153C2135
:100DA8000A128A11831203132B0883160313CF0028
:100DB800831203132A0883160313CE008312031326
:100DC800290883160313CD008312031328088316FA
:100DD8000313CC00A030C800480883120313EA00AC
:100DE80083160313530883120313EE0083160313A9
:100DF800520883120313ED0083160313510883125C
:100E08000313EC0083160313500883120313EB003B
:100E1800DD300A168A1115250A128A11A0308316A8
:100E28000313C800480883120313EA008316031348
:100E38004F0883120313EE00831603134E08831220
:100E48000313ED00831603134D0883120313EC00FC
:100E5800831603134C0883120313EB00D9300A16C8
:100E68008A1115250A128A11A63083160313C800A1
:100E7800480883120313EA008316031355088312E4
:100E88000313EC0083160313540883120313EB00B7
:100E9800E1300A168A1115250A128A11F601F60A96
:100EA80001300A168A15C9210A128A119130F600F2
:100EB8008030F7000A168A15D5220A128A11F6011F
:100EC800F60A02300A168A15C9210A128A11DD307B
:100ED800F6000030F7000A168A15D5220A128A1180
:100EE800063083160313C8004808F60002300A16B5
:100EF8008A15C9210A128A11D930F6000030F70084
:100F08000A168A15D5220A128A110B308316031382
:100F1800C8004808F60002300A168A15C9210A12C4
:100F28008A11E130F6000030F7000A168A15D5223A
:100F38000A128A114530831203139900DD300A160C
:100F48008A15A8210A128A11D9300A168A15A821E9
:100F58000A128A11E1300A168A15A8210A128A1182
:100F6800272E0A128A110C2883120313A401A50143
:100F7800200821040319C12FC22FF92FA601A60AA0
:100F8800D02F01300310A00DA10DFF3E031DC62F69
:100F98000130F9007908A607A11FD32FD42FC52F38
:100FA80001300310A40DA50DFF3E031DD52F210808
:100FB8002302031DE12F20082202031CE42FE52F42
:100FC800EC2F2008A2022108031CA303A302241467
:100FD80001300310A10CA00CFF3E031DED2F0130C2
:100FE800A602031DF82FF92FD42F2508A1002408E5
:040FF800A00008004D
:10100000831203139F140800760875047404730494
:1010100003190B280C280E288030F60608008312CE
:101020000313A501A11F152816281D28A009A10931
:10103000A00A0319A10AA501A50AA31F2028212897
:101040002A28A209A309A20A0319A30A0130FA0057
:101050007A08A506A601A701200821040319312852
:1010600032286928A401A40A402801300310A00DE9
:10107000A10DFF3E031D36280130FA007A08A407AF
:10108000A11F43284428352801300310A60DA70DC1
:10109000FF3E031D452821082302031D5128200877
:1010A0002202031C542855285C282008A20221088B
:1010B000031CA303A302261401300310A10CA00CEF
:1010C000FF3E031D5D280130A402031D6828692826
:1010D0004428250803196D286E287328A609A70936
:1010E000A60A0319A70A2708A1002608A0000800DD
:1010F000F8009328831203139F131F13EF28831202
:1011000003139F131F17EF28831203139F171F1337
:10111000EF28831203139F171F17EF28831203135F
:101120009F131F17EF287808F600F7017708003A99
:1011300003199B288E287608003A03197A28013A69
:1011400003197F28033A03198428013A03198928CF
:101150008E281F119F111F129F1223291F159F11E7
:101160001F129F1223291F119F151F129F1223293F
:101170001F159F151F129F1223291F119F111F1644
:101180009F1223291F159F111F169F1223291F111C
:101190009F151F169F1223291F159F151F169F129B
:1011A00023291F119F111F129F1623291F159F11FD
:1011B0001F129F1623291F119F151F129F162329E7
:1011C0001F159F151F129F1623291F119F111F16F0
:1011D0009F1623291F159F111F169F162329730879
:1011E000F600F7017708003A0319F7282329760853
:1011F000003A0319A928013A0319AE28033A031942
:10120000B328013A0319B828073A0319BD28013A4F
:101210000319C228033A0319C728013A0319CC2835
:101220000F3A0319D128013A0319D628033A0319B2
:10123000DB28013A0319E028073A0319E528013AA7
:101240000319EA2823291F147403031D28292929B7
:101250002F290C13831603130C170B178B17750C00
:1012600083160313031C9F1303189F171F129F124B
:10127000831203139F140800831203132B08803971
:10128000B0003008B5002B08B0003007B1003108BD
:10129000BB00AA1F4C294D294E293B143B080319BA
:1012A0005229532962293B0A031D572958296029CD
:1012B0000030AB000030AA000030A9000030A800C8
:1012C000AA176A290030AB000030AA000030A9003C
:1012D0000030A8002F088039B0003008B5062F086C
:1012E000B0003007B1003108BA00AE1F7829792963
:1012F0007A293A143A0803197E297F298E293A0A55
:10130000031D832984298C290030AF000030AE00F2
:101310000030AD000030AC00AE1796290030AF00B1
:101320000030AE000030AD000030AC003A080319C8
:101330009A299B29A0293B08031D9F29A029A92997
:101340000030AB000030AA000030A9000030A80037
:101350009C2C2808B0003008F3002E080A168A15C5
:1013600012220A128A15740883120313C10073082B
:10137000C0004008B000B101B201B3013308B900A8
:101380003208B8003108B7003008B6004108B00094
:10139000B101B201B3013308BF003208BE00310809
:1013A000BD003008BC002908B0003008F3002D084B
:1013B0000A168A1512220A128A1574088312031358
:1013C000C1007308C0004008B000B101B201B30110
:1013D0003008B607310803110318013E0319F1293B
:1013E000B707320803110318013E0319F829B8079B
:1013F000330803110318013E0319FF29B9074108F7
:10140000B000B101B201B3013008BC0731080311CB
:101410000318013E03190D2ABD07320803110318F2
:10142000013E0319142ABE07330803110318013EB5
:1014300003191B2ABF072A08B0003008F3002C0844
:101440000A168A1512220A128A15740883120313C7
:10145000C1007308C0004008B000B101B201B3017F
:101460003008B607310803110318013E0319392A61
:10147000B707320803110318013E0319402AB807C1
:10148000330803110318013E0319472AB90741081D
:10149000B000B101B201B3013008BC07310803113B
:1014A0000318013E0319552ABD073208031103181A
:1014B000013E03195C2ABE07330803110318013EDD
:1014C0000319632ABF070830B0000310B60DB70D2B
:1014D000B80DB90DB00B652A2908B0003008F3002B
:1014E0002C080A168A1512220A128A157408831209
:1014F0000313C1007308C0004008B0004108B100E8
:10150000B201B3013008B607310803110318013ED8
:1015100003198B2AB707320803110318013E031978
:10152000922AB807330803110318013E0319992AB8
:10153000B9072808B0003008F3002D080A168A15EC
:1015400012220A128A15740883120313C100730849
:10155000C0004008B0004108B100B201B30130083A
:10156000B607310803110318013E0319B82AB7075B
:10157000320803110318013E0319BF2AB8073308C4
:1015800003110318013E0319C62AB9070830B00039
:101590000310B60DB70DB80DB90DB00BC82A280849
:1015A000B0003008F3002C080A168A1512220A121D
:1015B0008A15740883120313C1007308C000400821
:1015C000B0004108B100B201B3013008B6073108DC
:1015D00003110318013E0319EE2AB707320803115D
:1015E0000318013E0319F52AB8073308031103183D
:1015F000013E0319FC2AB9072908B0003008F3009E
:101600002E080A168A1512220A128A1574088312E5
:101610000313C1007308C0004008B0004108B100C6
:10162000B201B3013008BC07310803110318013EB1
:1016300003191B2BBD07320803110318013E0319C0
:10164000222BBE07330803110318013E0319292B6F
:10165000BF072A08B0003008F3002D080A168A15C3
:1016600012220A128A15740883120313C100730828
:10167000C0004008B0004108B100B201B301300819
:10168000BC07310803110318013E0319482BBD079D
:10169000320803110318013E03194F2BBE0733080C
:1016A00003110318013E0319562BBF072A08B00087
:1016B0003008F3002E080A168A1512220A128A151B
:1016C000740883120313C1007308C0004008B000FF
:1016D0004108B100B201B30108300310B00DB10DE3
:1016E000B20DB30DFF3E031D6D2B3008BC07310852
:1016F00003110318013E03197E2BBD0732080311A5
:101700000318013E0319852BBE0733080311031884
:10171000013E03198C2BBF073608B0003708B10013
:101720003808B2003908B30018300310B30CB20CFB
:10173000B10CB00CFF3E031D952B3008BC073108DF
:1017400003110318013E0319A62BBD07320803112C
:101750000318013E0319AD2BBE073308031103180C
:10176000013E0319B42BBF070830B0000310B60DBB
:10177000B70DB80DB90DB00BB62B3B083A07B0004A
:10178000B101B10D3008823EC00031080318013E9E
:10179000FF3EC100E82B0130B0000310BC0DBD0DB1
:1017A000BE0DBF0DB00BCD2BB91FD72BD82BD92B0E
:1017B0003C140130B0000310B60DB70DB80DB90DD3
:1017C000B00BDB2BFF30C0070318C10AFF30C10785
:1017D000BE1FEB2BEC2BCB2BBA01B91FF02BF12B3F
:1017E0000D2CFF303605B000FF303705B100FF305B
:1017F0003805B2007F303905B300330832043104B4
:1018000030040319042C052C082CBA01BA0A0D2C3B
:101810003C1C0B2C0C2C0D2C052C3A080319112CFC
:10182000122C432C0130BC07003003180130BD07D7
:10183000003003180130BE07003003180130BF0725
:101840003F1C232C242C432C3C08B0003D08B10045
:101850003E08B2003F08B3000130B400330DB30CB2
:10186000B20CB10CB00CB40B2E2C3308BF003208F4
:10187000BE003108BD003008BC000130C0070318AD
:10188000C10A0030C1074108803AFF0080307F0262
:10189000031D4C2CFF304002031C4F2C502C5B2CA2
:1018A0007F3083120313BF008030BE000030BD00C4
:1018B0000030BC00902C831203134108803AFF00D3
:1018C00080307F02031D662C013040020318692C12
:1018D0006A2C762C003083120313BF000030BE0048
:1018E0000030BD000030BC00B501902C8312031302
:1018F0004008B0003008BB00FF30BC05FF30BD051C
:101900007F30BE050030BF053B1C872C882C892CFE
:10191000BE173B08B0000310300CB1003108BF0007
:101920003508B0003008BF043F08AB003E08AA00ED
:101930003D08A9003C08A800080083120313D40046
:10194000D41FA32CA42C532ED409D40A5408803AB3
:10195000123E031CAC2CAD2C972D0A30A000003099
:10196000A1005408F500F601F51BF6036430F300FE
:101970000030F4000A168A1564240A128A157408C5
:1019800083120313A3007308A2000A128A150F2002
:101990000A128A15831203132008C60001300310AF
:1019A000C60DFF3E031DCF2C0310460D593E84008B
:1019B0000A168A150A200A128A15C7000A168A15FD
:1019C0000A200A128A15C8000A168A150A200A1265
:1019D0008A15C9000A168A150A200A128A15CA0031
:1019E0004A08AB004908AA004808A9004708A8000F
:1019F0006430A0000030A1005408A200A301A21B83
:101A0000A3030A128A150F200A128A1583120313E0
:101A10002008CB0001300310CB0DFF3E031D0B2D22
:101A200003104B0D7D3E84000A168A150A200A1207
:101A30008A15CC000A168A150A200A128A15CD00CA
:101A40000A168A150A200A128A15CE000A168A1565
:101A50000A200A128A15CF004F08AF004E08AE00C8
:101A60004D08AD004C08AC000A128A153C210A1240
:101A70008A15831203132B08D3002A08D2002908E1
:101A8000D1002808D0000A30F3000030F4005408D8
:101A9000F500F601F51BF6030A168A1564240A12EE
:101AA0008A15730883120313C60001300310C60D94
:101AB000FF3E031D562D0310460D353E84000A16C9
:101AC0008A150A200A128A15C7000A168A150A20E2
:101AD0000A128A15C8000A168A150A200A128A15DF
:101AE000C9000A168A150A200A128A15CA004A086D
:101AF000AB004908AA004808A9004708A8005308F5
:101B0000AF005208AE005108AD005008AC000A12F8
:101B10008A153C210A128A15831203132B08C5006B
:101B20002A08C4002908C3002808C200FF2F54084F
:101B3000803A753E031C9D2D9E2D262E0A30F30003
:101B40000030F4005408F500F601F51BF6030A1600
:101B50008A1564240A128A15730883120313C600B7
:101B600001300310C60DFF3E031DB12D0310460DBD
:101B7000353E84000A168A150A200A128A15C70003
:101B80000A168A150A200A128A15C8000A168A152A
:101B90000A200A128A15C9000A168A150A200A1292
:101BA0008A15CA004A08AB004908AA004808A900DB
:101BB0004708A8000A30A0000030A1005408A20085
:101BC000A301A21BA3030A128A150F200A128A1569
:101BD000831203132008CB0001300310CB0DFF3E0E
:101BE000031DED2D03104B0D593E84000A168A1576
:101BF0000A200A128A15CC000A168A150A200A122F
:101C00008A15CD000A168A150A200A128A15CE00F6
:101C10000A168A150A200A128A15CF004F08AF004B
:101C20004E08AE004D08AD004C08AC000A128A15F3
:101C30003C210A128A15831203132B08C5002A08B7
:101C4000C4002908C3002808C200FF2F5408C6009A
:101C500001300310C60DFF3E031D292E0310460D53
:101C6000353E84000A168A150A200A128A15C70012
:101C70000A168A150A200A128A15C8000A168A1539
:101C80000A200A128A15C9000A168A150A200A12A1
:101C90008A15CA004A08C5004908C4004808C3009C
:101CA0004708C200FF2F5408803A123E031C592EE9
:101CB0005A2E442F0A30A0000030A1005408F5002D
:101CC000F601F51BF6036430F3000030F4000A1649
:101CD0008A1564240A128A15740883120313A30058
:101CE0007308A2000A128A150F200A128A1583129D
:101CF00003132008C60001300310C60DFF3E031D6C
:101D00007C2E0310460D253E84000A168A150A20F3
:101D10000A128A15C7000A168A150A200A128A159D
:101D2000C8000A168A150A200A128A15C9000A165E
:101D30008A150A200A128A15CA004A08AB00490807
:101D4000AA004808A9004708A8006430A000003095
:101D5000A1005408A200A301A21BA3030A128A1522
:101D60000F200A128A15831203132008CB000130BA
:101D70000310CB0DFF3E031DB82E03104B0D493E43
:101D800084000A168A150A200A128A15CC000A163F
:101D90008A150A200A128A15CD000A168A150A2009
:101DA0000A128A15CE000A168A150A200A128A1506
:101DB000CF004F08AF004E08AE004D08AD004C08F4
:101DC000AC000A128A153C210A128A1583120313E9
:101DD0002B08D3002A08D2002908D1002808D000F7
:101DE0000A30F3000030F4005408F500F601F51B4A
:101DF000F6030A168A1564240A128A1573088312D8
:101E00000313C60001300310C60DFF3E031D032F50
:101E10000310460D013E84000A168A150A200A1294
:101E20008A15C7000A168A150A200A128A15C800E0
:101E30000A168A150A200A128A15C9000A168A1576
:101E40000A200A128A15CA004A08AB004908AA00EB
:101E50004808A9004708A8005308AF005208AE0080
:101E60005108AD005008AC000A128A153C210A1234
:101E70008A15831203132B08C5002A08C4002908F9
:101E8000C3002808C200FF2F5408803A753E031C87
:101E90004A2F4B2FD32F0A30F3000030F4005408A0
:101EA000F500F601F51BF6030A168A1564240A12DA
:101EB0008A15730883120313C60001300310C60D80
:101EC000FF3E031D5E2F0310460D013E84000A16DF
:101ED0008A150A200A128A15C7000A168A150A20CE
:101EE0000A128A15C8000A168A150A200A128A15CB
:101EF000C9000A168A150A200A128A15CA004A0859
:101F0000AB004908AA004808A9004708A8000A3001
:101F1000A0000030A1005408A200A301A21BA3034B
:101F20000A128A150F200A128A1583120313200839
:101F3000CB0001300310CB0DFF3E031D9A2F031081
:101F40004B0D253E84000A168A150A200A128A15AE
:101F5000CC000A168A150A200A128A15CD000A1624
:101F60008A150A200A128A15CE000A168A150A2036
:101F70000A128A15CF004F08AF004E08AE004D0878
:101F8000AD004C08AC000A128A153C210A128A15D1
:101F9000831203132B08C5002A08C4002908C300B4
:101FA0002808C200FF2F5408C60001300310C60DD8
:101FB000FF3E031DD62F0310460D013E84000A1676
:101FC0008A150A200A128A15C7000A168A150A20DD
:101FD0000A128A15C8000A168A150A200A128A15DA
:101FE000C9000A168A150A200A128A15CA004A0868
:101FF000C5004908C4004808C3004708C2000800DB
:10200800031083120313570D580DD9005908DF0028
:102018005F08031D102811281A280030D800003046
:10202800D7000030D6000030D5007F285508D900E9
:102038005608DA005708DB005808DC001F30031088
:10204800DC0CDB0CDA0CD90CFF3E031D23285908E5
:10205800DD005D08DE00D717FF30D505FF30D60557
:10206800FF30D7050030D8059630DF02DF1F3D2846
:102078003E2858285F08803A973E03184428452888
:102088004628112801300310D80CD70CD60CD50CD3
:10209800FF3E031D47280130D9005908DF07031DFB
:1020A8005628572846286F2820305F02031C5D28D1
:1020B8005E286A2811280130D9000310D50DD60DE5
:1020C800D70DD80DD90B61280130DF025F08031D39
:1020D8006E286F285F285E080319732874287F28E4
:1020E800D509D609D709D809D50A0319D60A031973
:1020F800D70A0319D80A080083120313D5006E30D3
:102108005502031C8828892898293F30AB000030E5
:10211800AA000030A9000030A8006430A0000030F8
:10212800A1005508C600C7014608A2004708A30039
:102138000A128A11B8270A168A1183120313200873
:10214800C80001300310C80DFF3E031DA628031068
:10215800480D7D3E84000A168A150A200A168A113F
:10216800C9000A168A150A200A168A11CA000A1610
:102178008A150A200A168A11CB000A168A150A201F
:102188000A168A11CC004C08AF004B08AE004A086A
:10219800AD004908AC000A128A153C210A168A11BA
:1021A800831203132B08D4002A08D3002908D2006D
:1021B8002808D1000A30A0000030A1005508C60048
:1021C800C7014608F5004708F6006430F300003000
:1021D800F4000A168A159B220A168A1174088312BB
:1021E8000313A3007308A2000A128A11B8270A165B
:1021F8008A11831203132008C80001300310C80D88
:10220800FF3E031D02290310480D593E84000A169B
:102218008A150A200A168A11C9000A168A150A2080
:102228000A168A11CA000A168A150A200A168A117D
:10223800CB000A168A150A200A168A11CC004C0807
:10224800AB004B08AA004A08A9004908A80054088E
:10225800AF005308AE005208AD005108AC000A1296
:102268008A153C210A168A11831203132B08D00001
:102278002A08CF002908CE002808CD000A30F3002C
:102288000030F4005508C600C7014608F5004708A5
:10229800F6000A168A159B220A168A1173088312F9
:1022A8000313C80001300310C80DFF3E031D572952
:1022B8000310480D353E84000A168A150A200A16AE
:1022C8008A11C9000A168A150A200A168A11CA0034
:1022D8000A168A150A200A168A11CB000A168A15C8
:1022E8000A200A168A11CC004C08AB004B08AA0039
:1022F8004A08A9004908A8005008AF004F08AE00D6
:102308004E08AD004D08AC000A128A153C210A1689
:102318008A11831203132B08C5002A08C400290850
:10232800C3002808C2008C2A0B305502031C9D29C3
:102338009E29492A3F30AB000030AA000030A9008E
:102348000030A8000A30A0000030A1005508C600DF
:10235800C7014608A2004708A3000A128A11B82735
:102368000A168A11831203132008C80001300310CB
:10237800C80DFF3E031DBB290310480D593E8400BC
:102388000A168A150A200A168A11C9000A168A1519
:102398000A200A168A11CA000A168A150A200A167D
:1023A8008A11CB000A168A150A200A168A11CC004F
:1023B8004C08AF004B08AE004A08AD004908AC0015
:1023C8000A128A153C210A168A11831203132B0854
:1023D800D4002A08D3002908D2002808D1000A30DE
:1023E800F3000030F4005508C600C7014608F500A0
:1023F8004708F6000A168A159B220A168A117308DE
:1024080083120313C80001300310C80DFF3E031DDB
:10241800082A0310480D353E84000A168A150A203A
:102428000A168A11C9000A168A150A200A168A117C
:10243800CA000A168A150A200A168A11CB000A163B
:102448008A150A200A168A11CC004C08AB004B08E2
:10245800AA004A08A9004908A8005408AF00530870
:10246800AE005208AD005108AC000A128A153C2192
:102478000A168A11831203132B08C5002A08C40000
:102488002908C3002808C2008C2A3F30AB0000305E
:10249800AA000030A9000030A8005508C600013085
:1024A8000310C60DFF3E031D542A0310460D353E8A
:1024B80084000A168A150A200A168A11C7000A1605
:1024C8008A150A200A168A11C8000A168A150A20CF
:1024D8000A168A11C9000A168A150A200A168A11CC
:1024E800CA004A08AF004908AE004808AD004708CE
:1024F800AC000A128A153C210A168A1183120313AA
:102508002B08C5002A08C4002908C3002808C200EF
:1025180008008312031359088039DE005E08E600BC
:102528005908DE005E07DF005F08E800D81F9D2A13
:102538009E2A9F2A681468080319A32AA42AB42A81
:10254800680A031DA82AA92AB12A0030D900003038
:10255800D8000030D7000030D600D817D901BC2ADF
:102568000030D9000030D8000030D7000030D60045
:102578005D088039DE005E08E70067086606031913
:10258800C62AC72AC82A66175D08DE005E07DF006C
:102598005F08E700DC1FD12AD22AD32A671467080C
:1025A8000319D72AD82AE82A670A031DDC2ADD2A54
:1025B800E52A0030DD000030DC000030DB000030B0
:1025C800DA00DC17DD01F02A0030DD000030DC0025
:1025D8000030DB000030DA00680867020318F52ACB
:1025E800F62A3A2B661FF92AFA2AFE2A8030DE00DC
:1025F8005E08E6066808DE005E08E9006708DE0097
:102608005E08E8006908DE005E08E7005608DE009C
:102618005E08E9005A08DE005E08D6006908DE0098
:102628005E08DA005708DE005E08E9005B08DE0095
:102638005E08D7006908DE005E08DB005808DE0087
:102648005E08E9005C08DE005E08D8006908DE0064
:102658005E08DC005908DE005E08E9005D08DE005F
:102668005E08D9006908DE005E08DD00E901670838
:10267800DE00DF015F08E10068085E02E000031C7D
:10268800E1036108803AFF0080307F02031D4E2B72
:102698001A306002031C512B522B8F2B8312031309
:1026A8005908580457045604031D5B2B5D2B013051
:1026B8005E2B0030DE005E08E9000030D9000030F3
:1026C800D8000030D7000030D6006708DE005E086A
:1026D800E800972B691C712B722B7B2B6908DE0095
:1026E80003105E0C0138DF005F08E9007D2B031042
:1026F800E90C561C802B812B822BE9170130DE0058
:10270800590DD90CD80CD70CD60CDE0B842B013004
:10271800DE005E08E8078312031367086802031CDB
:10272800962B972B6E2B661B9A2B9B2BE62B6808F8
:10273800031D9F2BA02BA92B0030D9000030D800F7
:102748000030D7000030D600142D5A08D6075B0891
:1027580003110318013E0319B22BD7075C080311B4
:102768000318013E0319B92BD8075D080311031894
:10277800013E0319C02BD907591CC32BC42B9A2C13
:10278800691CC72BC82BD12B6908DE0003105E0C0F
:102798000138DF005F08E900D32B0310E90C561C51
:1027A800D62BD72BD82BE9170130DE00590DD90CC1
:1027B800D80CD70CD60CDE0BDA2B0130DE005E0805
:1027C800E8079A2C5908803AFF005D08803A7F0292
:1027D800031DF82B5C085802031DF82B5B085702F1
:1027E800031DF82B5A0856020318FB2BFC2B542CFC
:1027F800FF30DE00FF30DF00FF30E000FF30E10097
:102808005A08E2005B08E3005C08E4005D08E500A4
:102818005608E2025708031C570F132C142CE30226
:102828005808031C580F192C1A2CE4025908031CC9
:10283800590F1F2C202CE5026208DE0763080318D5
:10284800630F272C282CDF0764080318640F2D2C2E
:102858002E2CE00765080318650AE1076108D9000E
:102868006008D8005F08D7005E08D6008030DE0018
:102878005E08E606E909E90A6908031D442C452CA7
:10288800622C0130D607003003180130D70700301A
:1028980003180130D807003003180130D907622C1B
:1028A8005A08D6025B08031C5B0FD7025C08031C9E
:1028B8005C0FD8025D08031C5D0FD9025908580443
:1028C80057045604031D692C6A2C962C6908031DAD
:1028D8006E2C6F2C962C0030D9000030D8000030B8
:1028E800D7000030D600142D0130DE000310D60DBD
:1028F800D70DD80DD90DDE0B7A2CE91F842C852C29
:10290800862C5614691C892C8A2C8D2C0314E90DED
:102918008F2C0310E90D68080319932C942C962C1E
:102928000130E802D81F992C9A2C782CE701E91F6E
:102938009E2C9F2CAD2C69087F390319A42CA52C3B
:10294800A82CE701E70AAD2C561CAB2CAC2CAD2CFF
:10295800A52C67080319B12CB22CE62C0130D60738
:10296800003003180130D707003003180130D807AA
:10297800003003180130D907591CC32CC42CE62C8D
:102988005608DE005708DF005808E0005908E10043
:102998000130E200610DE10CE00CDF0CDE0CE20B13
:1029A800CE2C6108D9006008D8005F08D7005E08FF
:1029B800D600680A0319E12CE22CE62C0130DE006F
:1029C8005E08E807680A0319EA2CEB2CF02C680863
:1029D800031DEF2CF02CFE2C0030D9000030D8005D
:1029E8000030D7000030D6006808031DFC2CFD2CF1
:1029F800FE2CE601681C012D022D042DD817082D88
:102A08007F30DE005E08D8056808DE0003105E0C23
:102A1800DF005F08D900E61F122D132D142DD917DA
:102A2800080083160313C4006B30A8002808B100FF
:102A38000A128A11EE2D253047060319242D252D5B
:102A4800312D4708A8004408840028088313800013
:102A58000130A8002808C4071C2DB401B501B20133
:102A6800B301831203136A0884000A168A150A2020
:102A78000A168A110A168A1551210A168A11031C88
:102A8800462D472D8D2D83160313B401B5010A3049
:102A9800F3000030F400831603133508F6003408F9
:102AA800F5000A168A15ED210A168A11740883168C
:102AB8000313B5007308B400831203136A08840073
:102AC8000A168A150A200A168A11D03E831603139D
:102AD800A800FF3003180030A9002808B40703181D
:102AE800B50A2908B5070130A8002808831203137E
:102AF800EA076A0884000A168A150A200A168A1143
:102B08000A168A1551210A168A1103188C2D8D2D43
:102B18004B2D831203136A0884000A168A150A20AB
:102B28000A168A112E3A031D9A2D9B2DED2D831618
:102B3800031333170130A800280883120313EA0788
:102B480083160313C501C601DB2D0A30F3000030DC
:102B5800F400831603134608F6004508F5000A1624
:102B68008A15ED210A168A11740883160313C60004
:102B78007308C500831203136A0884000A168A15AD
:102B88000A200A168A11D03E83160313A800FF30C4
:102B980003180030A9002808C5070318C60A290821
:102BA800C6070130A800280883120313EA07831216
:102BB8006A0884000A168A150A200A168A110A1653
:102BC8008A1551210A168A110318EB2DEC2DA92D0F
:102BD800F52D83160313C501C6013316F52D3315DC
:102BE800192E013083120313EA07FF306A078400A5
:102BF8000A168A150A200A168A1183160313C700B3
:102C0800A800A9012908003A03190B2E1C2D280831
:102C1800003A0319FD2F643A0319192E023A0319D1
:102C2800F32D0F3A0319192E1C2D00303205A80078
:102C380007303305A900280829040319242E272E54
:102C48000A128A11512C331E2A2E2B2E2F2E0630B3
:102C5800C5000030C6003108840083130008C00096
:102C6800840A0008C100840A0008C200840A000817
:102C7800C3000430A8002808B1074308F60042083A
:102C8800F5004108F4004008F3000030FA00003075
:102C9800F9000030F8000030F7000A168A152525DB
:102CA8000A168A110318592E5A2E772E83160313E3
:102CB8004308F6004208F5004108F4004008F30014
:102CC8000A128A1504200A168A1176088316031335
:102CD800C3007508C2007408C1007308C00003303F
:102CE800B2040030B30483160313BE01BF014308C6
:102CF800F6004208F5004108F4004008F3000030EF
:102D0800FA000030F9000030F8000030F7000A1629
:102D18008A151B230A168A110318932E942E942FB2
:102D2800031083160313420D430D823EBE00FF308D
:102D380003180030BF00FF30BE070318BF0AFF307A
:102D4800BF070330F3000030F4003F08F6003E08E8
:102D5800F5000A168A15ED210A168A1174088316D9
:102D68000313BF007308BE000A3083120313A000C8
:102D78000030A100831603133F0883120313A30036
:102D8800831603133E0883120313A2000A128A153E
:102D98000F200A168A1183120313210883160313BE
:102DA800BF0083120313200883160313BE00BF1F3E
:102DB800DE2EDF2EE52EFF30BE070318BF0AFF30D8
:102DC800BF073E03FF3A0A128A159D240A168A1184
:102DD80083120313450883160313B90083120313E0
:102DE800440883160313B800831203134308831699
:102DF8000313B70083120313420883160313B600A4
:102E0800430883120313AB0083160313420883128B
:102E18000313AA0083160313410883120313A9009E
:102E280083160313400883120313A80083160313A1
:102E3800390883120313AF0083160313380883126B
:102E48000313AE0083160313370883120313AD0070
:102E580083160313360883120313AC000A128A156B
:102E68003C210A168A11831203132B0883160313B5
:102E7800B900831203132A0883160313B8008312B8
:102E88000313290883160313B700831203132808B2
:102E980083160313B6003908F6003808F50037081A
:102EA800F4003608F3003F30FA008030F9000030B3
:102EB800F8000030F7000A168A1525250A168A1127
:102EC8000318672F682F712FFF3083160313BE076F
:102ED8000318BF0AFF30BF07942F8316031339085E
:102EE800F6003808F5003708F4003608F3004130DA
:102EF800FA002030F9000030F8000030F7000A1618
:102F08008A1525250A168A11031C8B2F8C2F942FBE
:102F1800013083160313BE070318BF0A0030BF072A
:102F2800831603134608803AFF0080307F02031D92
:102F38009F2F0D3045020318A22FA32FEA2F8316C7
:102F4800031345080A168A1180200A168A1183126B
:102F580003134508D9004408D8004308D70042089D
:102F6800D60083160313430883120313DD00831668
:102F78000313420883120313DC008316031341086A
:102F880083120313DB008316031340088312031311
:102F9800DA000A168A118D220A168A11831203137F
:102FA800590883160313C3008312031358088316A2
:102FB8000313C20083120313570883160313C100B7
:102FC80083120313560883160313C00083160313D2
:102FD8003F08803AFF0080307F02031DF52F0A303A
:102FE8003E020318FA2F0A128A111F280A128A11A0
:102FF80070280A128A11062EFF1B0A2883137F18CD
:1030080083170008840A0319FF0A080018308A0089
:103018000408840A820700340034003480343F34C2
:10302800003400342034413400340034C83442348D
:10303800003400347A344434003440341C34463488
:1030480000345034C334473400342434743449349D
:103058008034963418344B342034BC34BE344C3469
:1030680028346B346E344E34F93402341534503409
:10307800EC347834AD346034CA34F23449347134C1
:103088000034003480343F34CD34CC34CC343D3437
:103098000A34D73423343C346F34123483343A340A
:1030A8001734B734D1343834AC34C53427343734D2
:1030B800BD343734863435349534BF34D63433345C
:1030C8007734CC342B3432345F3470348934303430
:1030D800FF34E634DB342E340834E5343C341E3413
:1030E80060344234A2340D340134003400340034E6
:1030F8000A340034003400346434003400340034BA
:10310800E8340334003400341034273400340034F5
:10311800A034863401340034403442340F3400344F
:1031280080349634983400340034E134F53405346E
:103138000034CA349A343B34563431342034203481
:103148002034563432342034203443346F346E34CF
:1031580074342E340034253431342E34313466340A
:08316800003425346434003406
:10327E0064008001840A0406031900340406402900
:10328E00F30073088312031399000C1E4F29502963
:10329E004C290800F400F3013A307402031858293F
:1032AE005929612930307402031C5E295F29612976
:1032BE00F301F30A730C0800F5008312031388124E
:1032CE007508860088176B296C290000831203137A
:1032DE0088130730F4007D30F300F30B7429F40BE0
:1032EE0074290800F50083120313881675088600EA
:1032FE0088170D30F300F30B822983120313881302
:10330E000730F4007D30F300F30B8B29F40B8B297F
:10331E0008000330831603138500831603178801F4
:10332E000330880089018316031386018312031369
:10333E008601831603138801831203138801850106
:10334E000800F700F501F601BD2975087707F400AE
:10335E007408840000080A168A1547210A168A1571
:10336E000130F5070318F60A0030F60775087707DF
:10337E00F4007408840083130008031DC729C829AC
:10338E00AC290800F8007803031DCE29CF29DB29CC
:10339E0076087F3EF7007708F90079080A168A1535
:1033AE0063210A168A15EC2902307806031DE029DE
:1033BE00E129EC297608BF3EF7007708F900790875
:1033CE000A168A1563210A168A150800F701F801F4
:1033DE00731CF229F329F9297508F7070318F80A5F
:1033EE007608F80701300310F50DF60DFF3E031DAC
:1033FE00FA2901300310F40CF30CFF3E031D012AD1
:10340E0073087404031D0C2A0D2AEF297808F400A2
:10341E007708F300080083120313A400A001A10192
:10342E007308F500F6017508A2007608A300241CA7
:10343E00212A222A282A2208A0070318A10A2308D3
:10344E00A10701300310A20DA30DFF3E031D292A73
:10345E000310A40C2408031D352A362A1E2A21081F
:10346E00F4002008F3000800F400831603178711F8
:10347E008316031318151812831203139817193095
:10348E008316031399007403031D4E2A4F2A552ADF
:10349E008C16831203138C128B170B1783121810B2
:1034AE0018168316031398167303031D5F2A602ADA
:1034BE00662A0C16831203130C128B170B170800B7
:1034CE00831203130C1F6C2A6D2A8B2A0C1383167E
:1034DE000313D601D60A831203131F19772A782AEB
:1034EE00822A1E08F000700883160313D700831279
:1034FE0003131F158B2A1E08F00070088316031382
:10350E00D800831203131F118C1E8E2A8F2A942A21
:10351E001A08F0007008EF008C1272088A00710E03
:10352E008300FE0E7E0E0900730874040319A02A90
:10353E00A12AD02AF801F80AAF2A01300310F30DA0
:10354E00F40DFF3E031DA52A0130F7007708F8079A
:10355E00F41FB22AB32AA42A74087602031DB92ACC
:10356E0073087502031CBC2ABD2AC32A7308F50210
:10357E007408031CF603F60201300310F40CF30C6E
:10358E00FF3E031DC42A0130F802031DCF2AD02AA4
:10359E00B32A7608F4007508F300080083120313AB
:1035AE00A001A101FE2A20087607F9007708F8008D
:1035BE000318F80AA01FE42AF8037808FA007A081C
:1035CE0083120313FF00790884000A168A1500205F
:1035DE000A168A150A168A1579210A168A150130D5
:1035EE0083120313A0070318A10A0030A1072008B5
:1035FE007607F9007708F8000318F80AA01F082BC1
:10360E00F8037808FA007A0883120313FF0079088A
:10361E0084000A168A1500200A168A15003A031D20
:10362E00192B1A2BDA2A08000030730583120313A4
:10363E00A00000307405A10080307505A2007F3017
:10364E007605A3002308220421042004031D302B39
:10365E00312B392B0030F6000030F5000030F4002D
:10366E000030F30000307705A00000307805A1008F
:10367E0080307905A2007F307A05A300230822044A
:10368E0021042004031D4C2B4D2B552B0030FA002A
:10369E000030F9000030F8000030F7007A087606A6
:1036AE00031D632B79087506031D632B78087406BA
:1036BE00031D632B770873060319662B672B692B83
:1036CE0003106A2B03140800803083160313A3061D
:1036DE00270883120313D9008316031326088312B7
:1036EE000313D80083160313250883120313D70080
:1036FE0083160313240883120313D60083160313B1
:10370E00230883120313DD0083160313220883128A
:10371E000313DC0083160313210883120313DB004B
:10372E0083160313200883120313DA000A168A1174
:10373E008D220A168A158312031359088316031352
:10374E00A30083120313580883160313A2008312D7
:10375E000313570883160313A1008312031356088D
:10376E0083160313A000080083120313860114307E
:10377E00F7007930F600F60BC22BF70BC22BC72BD6
:10378E0030300A168A1563210A168A150730F7009B
:10379E007D30F600F60BD12BF70BD12B30300A16FD
:1037AE008A1563210A168A153530F600F60BDD2BC5
:1037BE0030300A168A1563210A168A153530F6003E
:1037CE00F60BE72B02300A168A1563210A168A15A4
:1037DE0038300A168A1563210A168A1508300A1619
:1037EE008A1563210A168A1501300A168A15632175
:1037FE000A168A1506300A168A1563210A168A15C4
:10380E000C300A168A1563210A168A1508008312CF
:10381E00031329082804270426040319172C182C2F
:10382E005B2CAF01AF0A282C0130AE000310A60DA1
:10383E00A70DA80DA90DAE0B1D2C0130AE002E0844
:10384E00AF07A91F2B2C2C2C1B2C29082D02031D76
:10385E003A2C28082C02031D3A2C27082B02031D94
:10386E003A2C26082A02031C3D2C3E2C4C2C2608F2
:10387E00AA022708031C270FAB022808031C280FD7
:10388E00AC022908031C290FAD0201300310A90C4C
:10389E00A80CA70CA60CFF3E031D4D2C0130AF0249
:1038AE00031D5A2C5B2C2C2C2D08A9002C08A800CB
:1038BE002B08A7002A08A6000800F901F61F682C9D
:1038CE00692C702CF509F609F50A0319F60AF901A7
:1038DE00F90AF41F732C742C792CF309F409F30AEA
:1038EE000319F40A7308740403197E2C7F2CAE2C72
:1038FE00F801F80A8D2C01300310F30DF40DFF3E84
:10390E00031D832C0130F7007708F807F41F902C65
:10391E00912C822C74087602031D972C7308750265
:10392E00031C9A2C9B2CA12C7308F5027408031C03
:10393E00F603F60201300310F40CF30CFF3E031DE8
:10394E00A22C0130F802031DAD2CAE2C912C79085F
:10395E000319B22CB32CB82CF509F609F50A031984
:10396E00F60A7608F4007508F3000800003083129A
:10397E000313A4000030A3000030A2000030A10009
:10398E0076087504740473040319CE2CCF2C1C2DE9
:10399E00A501A50ADF2C0130A0000310F30DF40DD4
:1039AE00F50DF60DA00BD42C0130A0002008A507B4
:1039BE00F61FE22CE32CD22C0130A0000310A10D37
:1039CE00A20DA30DA40DA00BE52C76087A02031D03
:1039DE00FA2C75087902031DFA2C74087802031D5F
:1039EE00FA2C73087702031CFD2CFE2C0D2D730888
:1039FE00F7027408031C740FF8027508031C750F88
:103A0E00F9027608031C760FFA0221140130031016
:103A1E00F60CF50CF40CF30CFF3E031D0E2D0130CD
:103A2E00A502031D1B2D1C2DE32C2408F6002308D4
:103A3E00F5002208F4002108F30008000030730599
:103A4E0083120313A00000307405A10080307505A9
:103A5E00A2007F307605A30023082204210420044F
:103A6E00031D3A2D3B2D432D0030F6000030F5009E
:103A7E000030F4000030F30000307705A000003075
:103A8E007805A10080307905A2007F307A05A30069
:103A9E002308220421042004031D562D572D5F2DCB
:103AAE000030FA000030F9000030F8000030F70066
:103ABE00F61F622D632D872D0030A0000030A1006F
:103ACE000030A2008030A3007308A0027408031C0B
:103ADE00740F722D732DA1027508031C750F782DAE
:103AEE00792DA2027608031C760F7E2D7F2DA30260
:103AFE002308F6002208F5002108F4002008F30040
:103B0E00FA1F8A2D8B2DAF2D0030A0000030A100A2
:103B1E000030A2008030A3007708A0027808031CB2
:103B2E00780F9A2D9B2DA1027908031C790FA02DD9
:103B3E00A12DA2027A08031C7A0FA62DA72DA3028F
:103B4E002308FA002208F9002108F8002008F700DF
:103B5E008030F6068030FA067A087602031DC12DF3
:103B6E0079087502031DC12D78087402031DC12D3D
:103B7E00770873020318C42DC52DC72D0310C82D49
:103B8E000314080083120313A00020080319D02D7C
:103B9E00D12DE52DF61FD42DD52DE52D7309A200BF
:103BAE007409A3007509A4007609A500A20A0319D9
:103BBE00A30A0319A40A0319A50AED2D7608A50078
:103BCE007508A4007408A3007308A2007608750493
:103BDE0074047304031DF42DF52DFE2D0030F60034
:103BEE000030F5000030F4000030F300842E9630E3
:103BFE00F7007708A100102E0130F7007708A10713
:103C0E0001300310A50CA40CA30CA20CFF3E031D47
:103C1E00082EFE302505031D152E162E032E322ED0
:103C2E000130F7007708A1070130A2070030031812
:103C3E000130A307003003180130A4070030031829
:103C4E000130A50701300310A50CA40CA30CA20C87
:103C5E00FF3E031D2A2EFF302505031D372E382E5D
:103C6E00172E442E0130A1020130F7000310A20DD1
:103C7E00A30DA40DA50DF70B3D2EA41B472E482E0C
:103C8E004E2E0230210203184D2E4E2E392E2118A3
:103C9E00512E522E5A2EFF30A205FF30A3057F3033
:103CAE00A405FF30A5050310A10C2108F700F801AB
:103CBE00F901FA0118300310F70DF80DF90DFA0D90
:103CCE00FF3E031D622E7708A2047808A30479082C
:103CDE00A4047A08A50420080319762E772E7C2ECC
:103CEE00F61F7A2E7B2E7C2EA5172508F6002408AB
:103CFE00F5002308F4002208F3000800730883126D
:103D0E000313A0007408A1007508A2000310210D72
:103D1E00220DA3002308A9002908031D972E982E13
:103D2E00A12E0030F6000030F5000030F400003017
:103D3E00F300412F7708A0007808A1007908A200AF
:103D4E000310210D220DA3002308A8002808031D2F
:103D5E00B12EB22EB32E982EF417FF30F305FF308E
:103D6E00F4050030F505F817FF30F705FF30F805BC
:103D7E000030F9050030A7000030A6000030A50085
:103D8E000030A4007F30A90298302807A000200838
:103D9E00A9021830A0002008A8000130A0000310CE
:103DAE00A40DA50DA60DA70DA00BD62E7908750294
:103DBE00031DE72E78087402031DE72E77087302A1
:103DCE00031CEA2EEB2EF62E7708F3027808031C5E
:103DDE00780FF4027908031C790AF50224140130D5
:103DEE000310F30DF40DF50DFF3E031DF72E0130FC
:103DFE00A802031D032F042FD42EA91F072F082F4F
:103E0E00222F2908803A973E03180E2F0F2F102FBE
:103E1E00982E01300310A70CA60CA50CA40CFF3E87
:103E2E00031D112F0130A0002008A907031D202F0C
:103E3E00212F102F392F18302902031C272F282F3E
:103E4E00342F982E0130A0000310A40DA50DA60D41
:103E5E00A70DA00B2B2F0130A9022908031D382F07
:103E6E00392F292F2708F6002608F5002508F4001B
:103E7E002408F30008000310750D760D831203134A
:103E8E00A0002008A6002608031D4E2F4F2F582FE6
:103E9E000030F6000030F5000030F4000030F30082
:103EAE00FF2F0310790D7A0DA0002008A50025081C
:103EBE00031D622F632F642F4F2FF517FF30F3056D
:103ECE00FF30F405FF30F5050030F605F917FF3029
:103EDE00F705FF30F805FF30F9050030FA05003020
:103EEE00A4000030A3000030A2000030A1007F30FB
:103EFE00A602A0302507A0002008A6022030A000B0
:103F0E002008A5000130A0000310A10DA20DA30DE5
:103F1E00A40DA00B8B2F7A087602031DA02F790813
:103F2E007502031DA02F78087402031DA02F7708B9
:103F3E007302031CA32FA42FB32F7708F302780864
:103F4E00031C780FF4027908031C790FF5027A0826
:103F5E00031C7A0FF60221140130A0000310F30D9A
:103F6E00F40DF50DF60DA00BB52F0130A502031DB6
:103F7E00C12FC22F892FA61FC52FC62FE02F2608AF
:103F8E00803A9F3E0318CC2FCD2FCE2F4F2F0130CE
:103F9E000310A40CA30CA20CA10CFF3E031DCF2FEB
:103FAE000130A0002008A607031DDE2FDF2FCE2F25
:103FBE00F72F20302602031CE52FE62FF22F4F2F6E
:103FCE000130A0000310A10DA20DA30DA40DA00B96
:103FDE00E92F0130A6022608031DF62FF72FE72F33
:103FEE002408F6002308F5002208F4002108F30047
:023FFE000800B9
:04400E00D4E0FFFFFC
:00000001FF
