:020000040000FA
:060000000A128A110C280F
:10000800FE00030EF1000A08F2000A128A11D9282C
:100018000A128A110F28F901FA0183010A128A11BA
:100028000929F8003028831203139F131F138C2803
:10003800831203139F131F178C28831203139F1710
:100048001F138C28831203139F171F178C288312E2
:1000580003139F131F178C287808F600F7017708F9
:10006800003A031938282B287608003A031917286C
:10007800013A03191C28033A03192128013A0319E4
:1000880026282B281F119F111F129F12C0281F15E9
:100098009F111F129F12C0281F119F151F129F1218
:1000A800C0281F159F151F129F12C0281F119F11CE
:1000B8001F169F12C0281F159F111F169F12C028B8
:1000C8001F119F151F169F12C0281F159F151F1659
:1000D8009F12C0281F119F111F129F16C0281F159D
:1000E8009F111F129F16C0281F119F151F129F16C0
:1000F800C0281F159F151F129F16C0281F119F117A
:100108001F169F16C0281F159F111F169F16C0285F
:100118007308F600F7017708003A03199428C028F5
:100128007608003A03194628013A03194B28033A7E
:1001380003195028013A03195528073A03195A2870
:10014800013A03195F28033A03196428013A03198D
:1001580069280F3A03196E28013A03197328033ADC
:1001680003197828013A03197D28073A03198228C8
:10017800013A03198728C0281F147403031DC528D2
:10018800C628CC280C13831603130C170B178B17D0
:10019800750C83160313031C9F1303189F171F1254
:1001A8009F12831203139F140800831203130C1F5A
:1001B800DE28DF28EC281F19E228E328E8281E0893
:1001C800F0007008FA00EC281E08F0007008F9002A
:1001D80072088A00710E8300FE0E7E0E090001303F
:1001E80083160313850083160317081488148901DE
:1001F80083160313860183120313860183160313E0
:10020800880183120313880108000A128A11F32057
:100218000A128A11F301F401F40AF50101300A12F5
:100228008A1115200A128A1118290A128A110C2813
:04400E00D6E0FFFFFA
:00000001FF
