:020000040000FA
:060000000A128A110C280F
:10000800FE00030EF1000A08F2000A128A11F02914
:100018000A128A110F28F801F901FA0183010A125C
:100028008A116B2983120313A00029289F131F1319
:1000380085289F131F1785289F171F1385289F172B
:100048001F1785289F131F1785282008F600F7011A
:100058007708003A0319312826287608003A031948
:100068001A28013A03191D28033A03192028013ACE
:100078000319232826281F119F111F129F12B92820
:100088001F159F111F129F12B9281F119F151F12AC
:100098009F12B9281F159F151F129F12B9281F11EB
:1000A8009F111F169F12B9281F159F111F169F1207
:1000B800B9281F119F151F169F12B9281F159F15C4
:1000C8001F169F12B9281F119F111F129F16B928BA
:1000D8001F159F111F129F16B9281F119F151F1258
:1000E8009F16B9281F159F151F129F16B9281F1193
:1000F8009F111F169F16B9281F159F111F169F16AF
:10010800B9287308F600F7017708003A03198D2813
:10011800B9287608003A03193F28013A03194428F8
:10012800033A03194928013A03194E28073A0319D3
:100138005328013A03195828033A03195D28013A4C
:10014800031962280F3A03196728013A03196C2822
:10015800033A03197128013A03197628073A031953
:100168007B28013A03198028B9281F147403031D3A
:10017800BE28BF28C5280C13831603130C170B17AA
:100188008B17750C83160313031C9F1303189F17F3
:100198001F129F12831203139F14080000300A12C3
:1001A8008A112D210A128A111A3083120313A10011
:1001B800F730A000A00BDE28A10BDE28E3280330CF
:1001C8000A128A110F220A128A11073083120313A6
:1001D800A1007C30A000A00BEF28A10BEF280000A5
:1001E80003300A128A110F220A128A11343083123C
:1001F8000313A000A00BFE28000003300A128A1186
:100208000F220A128A11343083120313A000A00BA4
:100218000B29000038300A128A110F220A128A119B
:1002280008300A128A110F220A128A1101300A12A2
:100238008A110F220A128A1106300A128A110F2215
:100248000A128A110C300A128A110F220A128A1114
:100258000800F300731C312932293629831203134D
:1002680006143929831203130610F31C3C293D296F
:100278003F29861440298610731D4329442946299D
:10028800061547290611F31D4A294B294D298615BC
:100298004E298611731E51295229542906165529AB
:1002A8000612F31E582959295B2986165C298612DD
:1002B800731F5F2960296229061763290613F31F34
:1002C80066296729692986176A29861308000A1288
:1002D8008A1129220A128A11F301F401F40AF5019C
:1002E80001300A128A1116200A128A110A128A117A
:1002F800D2200A128A117803031D832984298A29A6
:100308000A128A116F220A128A11F8010A128A1136
:1003180062220A128A11F701F70A01300A128A11B9
:10032800CA210A128A1101300A128A11A1210A125D
:100338008A117F290A128A110C2883120313A0003C
:10034800A101A201BC292108200784000A128A11F0
:1003580054220A128A110A128A113F220A128A1199
:10036800013083120313A1070318A20A0030A20761
:100378002108200784000A128A1154220A128A11BD
:10038800003A031DC829C929A729080083120313A5
:10039800A1002103031DD129D229DE2977087F3E38
:1003A800A0002008A20022080A128A110F220A12AD
:1003B8008A11EF2902302106031DE329E429EF29D8
:1003C8007708BF3EA0002008A20022080A128A115E
:1003D8000F220A128A110800831203130C1FF52931
:1003E800F629082A0C13F801F80A1F19FC29FD2917
:1003F800032A1E08F0007008FA001F15082A1E08B4
:10040800F0007008F9001F1172088A00710E83004D
:10041800FE0E7E0E0900F60083120313881276087A
:100428000A128A112D210A128A11831203138817BE
:100438000630F5003030F400F40B202AF50B202AA2
:100448000000831203138813080001308316031376
:10045800850083160317081488148901831603136B
:1004680086018312031386018316031388018312FE
:10047800031388010800F500831203138816750812
:100488000A128A112D210A128A118312031388175E
:100498000D30F400F40B4E2A83120313881308005E
:1004A80002308A000408840A820700345634313442
:1004B80020342034203456343234003400300A12C8
:1004C8008A110F220A128A1101300A128A110F2288
:1004D8000A128A110800702A712A00008312031375
:0404E8009F14080055
:04400E00D6E0FFFFFA
:00000001FF
