:020000040000FA
:060000000A128A110C280F
:10000800FE00030EF1000A08F2000A168A15ED2B0D
:100018000A128A110F2883120313EF018313CC30BD
:100028008400E0300A168A153A230A128A118301DD
:100038000A128A15002883160313C4006B30A8001F
:100048002808B1008E2F2530470603192C282D28A3
:1000580039284708A800440884002808831380002A
:100068000130A8002808C4078E2FB801B901B601CD
:10007800B701831203136A0884000A168A150A2036
:100088000A128A110A168A154D230A128A11031CAC
:100098004E284F28952883160313B801B9010A3052
:1000A800F3000030F400831603133908F60038080B
:1000B800F5000A168A15C8230A128A1174088316CD
:1000C8000313B9007308B800831203136A08840085
:1000D8000A168A150A200A128A11D03E83160313BB
:1000E800A800FF3003180030A9002808B807031833
:1000F800B90A2908B9070130A80028088312031390
:10010800EA076A0884000A168A150A200A128A1160
:100118000A168A154D230A128A110318942895285D
:100128005328831203136A0884000A168A150A20C2
:100138000A128A112E3A031DA228A328F52883162D
:10014800031337170130A800280883120313EA079E
:1001580083160313C501C601E3280A30F3000030F3
:10016800F400831603134608F6004508F5000A163E
:100178008A15C8230A128A11740883160313C60045
:100188007308C500831203136A0884000A168A15C7
:100198000A200A128A11D03E83160313A800FF30E2
:1001A80003180030A9002808C5070318C60A29083B
:1001B800C6070130A800280883120313EA07831230
:1001C8006A0884000A168A150A200A128A110A1671
:1001D8008A154D230A128A110318F328F428B12826
:1001E800FD2883160313C501C6013716FD283715E8
:1001F8001B29013083120313EA07FF306A078400C2
:100208000A168A150A200A128A1183160313C700D0
:10021800A800A9012908003A031913298E2F2808D4
:10022800003A0319A42F663A0319FB288E2F0030D1
:100238003605A80007303705A9002808290403193E
:1002480026292729CB2E371E2A292B292F29063084
:10025800C5000030C6003108840083130008C000C0
:10026800840A0008C100840A0008C200840A000841
:10027800C3000430A8002808B1074308F600420864
:10028800F5004108F4004008F3000030FA0000309F
:10029800F9000030F8000030F7000A168A155C27CC
:1002A8000A128A11031859295A2977298316031320
:1002B8004308F6004208F5004108F4004008F3003E
:1002C8000A168A1542230A128A117608831603131E
:1002D800C3007508C2007408C1007308C000033069
:1002E800B6040030B70483160313BE01BF014308E8
:1002F800F6004208F5004108F4004008F300003019
:10030800FA000030F9000030F8000030F7000A1653
:100318008A152C250A128A11031893299429942ADC
:10032800031083160313420D430D823EBE00FF30B7
:1003380003180030BF00FF30BE070318BF0AFF30A4
:10034800BF070330F3000030F4003F08F6003E0812
:10035800F5000A168A15C8230A128A11740883162A
:100368000313BF007308BE000A3083120313A000F2
:100378000030A100831603133F0883120313A30060
:10038800831603133E0883120313A2000A168A1168
:1003980007200A128A1183120313210883160313F4
:1003A800BF0083120313200883160313BE00BF1F68
:1003B800DE29DF29E529FF30BE070318BF0AFF3011
:1003C800BF073E03FF3A0A128A159D240A128A11B2
:1003D80083120313450883160313BD008312031306
:1003E800440883160313BC008312031343088316BF
:1003F8000313BB0083120313420883160313BA00C6
:10040800430883120313AB008316031342088312B5
:100418000313AA0083160313410883120313A900C8
:1004280083160313400883120313A80083160313CB
:100438003D0883120313AF00831603133C0883128D
:100448000313AE00831603133B0883120313AD0096
:10045800831603133A0883120313AC000A128A1591
:100468003C210A128A11831203132B0883160313E3
:10047800BD00831203132A0883160313BC008312DA
:100488000313290883160313BB00831203132808D8
:1004980083160313BA003D08F6003C08F5003B0834
:1004A800F4003A08F3003F30FA008030F9000030D9
:1004B800F8000030F7000A168A155C270A128A111C
:1004C8000318672A682A712AFF3083160313BE07A8
:1004D8000318BF0AFF30BF07942A831603133D0889
:1004E800F6003C08F5003B08F4003A08F3004130F8
:1004F800FA002030F9000030F8000030F7000A1642
:100508008A155C270A128A11031C8B2A8C2A942AC2
:10051800013083160313BE070318BF0A0030BF0754
:10052800831603134608803AFF0080307F02031DBC
:100538009F2A0D3045020318A22AA32AEA2A831605
:10054800031345080A168A116B230A128A118312AB
:1005580003134508D9004408D8004308D7004208C7
:10056800D60083160313430883120313DD00831692
:100578000313420883120313DC0083160313410894
:1005880083120313DB00831603134008831203133B
:10059800DA000A168A1178250A128A1183120313BF
:1005A800590883160313C3008312031358088316CC
:1005B8000313C20083120313570883160313C100E1
:1005C80083120313560883160313C00083160313FC
:1005D8003F08803AFF0080307F02031DF52A0A3069
:1005E8003E020318F82AF92A4A2B831603134308F4
:1005F800F6004208F5004108F4004008F300003016
:10060800FA000030F9000030F8000030F7000A1650
:100618008A152C250A128A110318132B142BBC2BAC
:1006280083160313430883120313D8008316031396
:10063800420883120313D700831603134108831259
:100648000313D60083160313400883120313D5003F
:100658000A168A15E0260A128A118312031358080B
:10066800570456045504031D3A2B3B2BBC2B831609
:1006780003133F08803AFF0080307F02031D462B9A
:1006880002303E02031C492B4A2BBC2B8316031352
:100698003D08F6003C08F5003B08F4003A08F30072
:1006A8004030FA008930F9007030F8005F30F70008
:1006B8000A168A155C270A128A110318642B652BFF
:1006C8006E2BF73083160313BE070318BF0AFF30DB
:1006D800BF07762BF83083160313BE070318BF0A2B
:1006E800FF30BF073E080A128A159D240A128A1194
:1006F80083120313450883160313BD0083120313E3
:10070800440883160313BC0083120313430883169B
:100718000313BB0083120313420883160313BA00A2
:100728004308F6004208F5004108F4004008F300C9
:100738003D08FA003C08F9003B08F8003A08F700C1
:100748000A168A11E9210A128A11760883160313F8
:10075800B5007508B4007408B3007308B20000301F
:10076800C3000030C2000030C1000030C000222C9D
:1007780083160313430883120313D8008316031345
:10078800420883120313D700831603134108831208
:100798000313D60083160313400883120313D500EE
:1007A8000A168A15E0260A128A11831203135808BA
:1007B80083160313B5008312031357088316031314
:1007C800B40083120313560883160313B30083126D
:1007D8000313550883160313B2003508F6003408CE
:1007E800F5003308F4003208F30000300A168A11C5
:1007F80070200A128A11760883160313A30075085D
:10080800A2007408A1007308A0004308A7004208CA
:10081800A6004108A5004008A4000A168A157C25F0
:100828000A128A11831603132308C3002208C20080
:100838002108C1002008C000BE01BF01C701C70AC6
:100848004708A80001300310A80DFF3E031D272C00
:100858000310280D693E84000A168A150A200A1218
:100868008A11A9000A168A150A200A128A11AA00F2
:100878000A168A150A200A128A11AB000A168A1566
:100888000A200A128A11AC002C083502031D562CC6
:100898002B083402031D562C2A083302031D562C3C
:1008A800290832020318592C5A2C5B2C652C01306C
:1008B800A8002808C7070A304706031D642C652CC2
:1008C800242C47084507A80046080318460AA9002B
:1008D8003E082807AA003F0803183F0A2907AB006B
:1008E8002A08B8022B08031CB903B90245084604B4
:1008F80003197F2C802C862CFF30B8070318B90AFF
:10090800FF30B90703303605A80000303705A900C5
:10091800280829040319912C922CA72CFF30B8071A
:100928000318B90AFF30B907A72C20308316031320
:10093800A800440884002808831380000130A80018
:100948002808C407922C3908803AFF0080307F02BB
:10095800031DB02C013038020318B32CB42C992C89
:100968000330831603133605A80000303705A900A5
:10097800280829040319C12CC22C342D2D30A800B5
:10098800440884002808831380000130A800280840
:10099800C407342D4708A80001300310A80DFF3EF6
:1009A800031DD12C0310280D693E84000A168A15F0
:1009B8000A200A128A11F3000A168A150A200A1256
:1009C8008A11F4000A168A150A200A128A11F500FB
:1009D8000A168A150A200A128A11F6003508FA0042
:1009E8003408F9003308F8003208F7000A168A15A7
:1009F80078260A128A11760883160313BD00750833
:100A0800BC007408BB007308BA000030F600003060
:100A1800F5000030F4000A30F3003D08FA003C0805
:100A2800F9003B08F8003A08F7000A128A11A927CA
:100A38000A128A11760883160313BD007508BC00D4
:100A48007408BB007308BA003A08303EA80044088E
:100A580084002808831380000130A8002808C407F0
:100A68000130C702470A031D3A2D3B2DCE2C4F2DCE
:100A7800303083160313A800440884002808831321
:100A880080000130A8002808C407FF30BE070318FB
:100A9800BF0AFF30BF073F08803AFF0080307F025F
:100AA800031D582D01303E0203185B2D5C2D3C2D93
:100AB800831603134608803AFF0080307F02031D27
:100AC800672D09304502031C6A2D6B2D722D0830E5
:100AD80083160313A8002808C700782D831603136C
:100AE8004508A8002808C7004708A800A901280841
:100AF800C5022908031CC603C60247080319852D29
:100B0800862D912D2E30A8004408840028088313D0
:100B180080000130A8002808C40747080A128A156F
:100B28009D240A128A11831203134508831603139E
:100B3800B00083120313440883160313AF00831213
:100B48000313430883160313AE00831203134208EA
:100B580083160313AD00300883120313AF00831606
:100B680003132F0883120313AE00831603132E08F2
:100B780083120313AD00831603132D088312031386
:100B8800AC0083160313430883120313AB008316C8
:100B98000313420883120313AA00831603134108A0
:100BA80083120313A9008316031340088312031347
:100BB800A8000A128A153C210A128A11831203130B
:100BC8002B08D8002A08D7002908D6002808D500FD
:100BD8000A168A15E0260A128A1183120313580886
:100BE80083160313B50083120313570883160313E0
:100BF800B40083120313560883160313B300831239
:100C08000313550883160313B200AB2E4708A80038
:100C180001300310A80DFF3E031D0D2E0310280DF3
:100C2800693E84000A168A150A200A128A11F300FE
:100C38000A168A150A200A128A11F4000A168A1559
:100C48000A200A128A11F5000A168A150A200A12C1
:100C58008A11F6003508FA003408F9003308F8005C
:100C68003208F7000A168A1578260A128A117608B9
:100C780083160313BD007508BC007408BB00730815
:100C8800BA000030F6000030F5000030F4000A30F9
:100C9800F3003D08FA003C08F9003B08F8003A0860
:100CA800F7000A128A11A9270A128A1176088316F0
:100CB8000313BD007508BC007408BB007308BA00B4
:100CC8003A08303EA80044088400280883138000AE
:100CD8000130A8002808C4074708A80001300310FD
:100CE800A80DFF3E031D732E0310280D693E8400D6
:100CF8000A168A150A200A128A11F3000A168A159A
:100D08000A200A128A11F4000A168A150A200A1201
:100D18008A11F5000A168A150A200A128A11F600A5
:100D28003508FA003408F9003308F8003208F700EB
:100D38000A128A11A9270A128A1176088316031340
:100D4800B5007508B4007408B3007308B200013028
:100D5800C702470A031DB12EB22E0A2EC42E303008
:100D6800A800440884002808831380000130A800E4
:100D78002808C407FF30C5070318C60AFF30C6078E
:100D880045084604031DC92ECA2EB32E8E2F4508CA
:100D98004604031DD02ED12EDF2E3508340433042B
:100DA8003204031DD82ED92EDF2E0130C5070318B3
:100DB800C60A0030C6074608803A803C031DE62E66
:100DC800450847020318E92EEA2EF12E831603136D
:100DD8004508A8002808C700092F831603134608EA
:100DE800803AA80080302802031DFC2E47084502DF
:100DF8000318FF2E002F092F831603134708A80096
:100E0800A9012808C5002908C60083160313380855
:100E180039040319102F112F232F03303605A8008A
:100E280000303705A9002808290403191C2F1D2F95
:100E3800232FFF30B8070318B90AFF30B907371F47
:100E4800262F272F422F4608803AA8003908803AD3
:100E58002802031D312F380845020318342F352F77
:100E68003E2F831603134508B8024608031CB9032E
:100E7800B902422F83160313B801B9013908803A21
:100E8800803C031D492F3808470203184C2F4D2F6B
:100E9800592F831603134708A800A9012808B80288
:100EA8002908031CB903B9025D2F83160313B8017F
:100EB800B901380839040319622F632F7A2F2030BB
:100EC800A800440884002808831380000130A80083
:100ED8002808C407FF30B8070318B90AFF30B90754
:100EE80038083904031D792F7A2F632F033036050C
:100EF800A80000303705A900280829040319852F00
:100F0800862F8E2F2D30A8004408840028088313CC
:100F180080003428013083120313EA07FF306A0780
:100F280084000A168A150A200A128A1183160313E6
:100F3800A8002808C7004708031DA32FA42F2728A7
:100F4800440884008313800108007608750474043B
:100F580073040319B02FB12FF62F83120313A101C5
:100F6800A10AC32F0130A0000310F30DF40DF50DF5
:100F7800F60DA00BB82F0130A0002008A107F61F1E
:100F8800C62FC72FB62F76087A02031DD52F7508EE
:100F98007902031DD52F74087802031DD52F730815
:100FA8007702031CD82FD92FE72F7308F70274088C
:100FB800031C740FF8027508031C750FF9027608F4
:100FC800031C760FFA0201300310F60CF50CF40C32
:100FD800F30CFF3E031DE82F0130A102031DF52F7E
:100FE800F62FC72F7A08F6007908F5007808F4007C
:060FF8007708F300080079
:101000000A168A158C230A128A150A168A15CC2507
:101010000A128A15F301F30AF401F40AF50101300A
:101020000A168A11A7220A128A15F30101300A163C
:101030008A1514240A128A15831603135403031DF8
:10104000222823282B280A168A1103200A128A151F
:1010500083160313D4013C3083120313AB00A0307A
:10106000AA00A030A900A130A8006F0883160313BE
:10107000C800C901CA01CB014B08F6004A08F500B7
:101080004908F4004808F30001300A168A1170205C
:101090000A128A15760883120313AF007508AE0092
:1010A0007408AD007308AC000A128A153C210A12BC
:1010B0008A15831203132B0883160313D30083129C
:1010C00003132A0883160313D2008312031329087B
:1010D00083160313D1008312031328088316031306
:1010E000D0003C3083120313AB00A030AA00A03024
:1010F000A900A130A800831603135508C800C90130
:10110000CA01CB014B08F6004A08F5004908F40073
:101110004808F30001300A168A1170200A128A1555
:10112000760883120313AF007508AE007408AD0093
:101130007308AC000A128A153C210A128A15831220
:1011400003132B0883160313CF00831203132A08FB
:1011500083160313CE008312031329088316031387
:10116000CD0083120313280883160313CC00A0308C
:10117000C800480883120313EA00831603135308B8
:1011800083120313EE008316031352088312031312
:10119000ED0083160313510883120313EC0083162A
:1011A0000313500883120313EB00DB300A128A1179
:1011B0001F200A128A15A03083160313C80048089E
:1011C00083120313EA00831603134F0883120313D9
:1011D000EE00831603134E0883120313ED008316EB
:1011E00003134D0883120313EC00831603134C08FA
:1011F00083120313EB00D6300A128A111F200A1241
:101200008A15F601F60A01300A168A15A4230A1275
:101210008A159130F6008030F7000A168A15A0244E
:101220000A128A15F601F60A02300A168A15A42354
:101230000A128A15DB30F6000030F7000A168A150C
:10124000A0240A128A15063083160313C800480822
:10125000F60002300A168A15A4230A128A15D6301F
:10126000F6000030F7000A168A15A0240A128A1523
:101270001C280A128A110C28831203132B088039A8
:10128000B0003008B5002B08B0003007B1003108BD
:10129000BB00AA1F4C294D294E293B143B080319BA
:1012A0005229532962293B0A031D572958296029CD
:1012B0000030AB000030AA000030A9000030A800C8
:1012C000AA176A290030AB000030AA000030A9003C
:1012D0000030A8002F088039B0003008B5062F086C
:1012E000B0003007B1003108BA00AE1F7829792963
:1012F0007A293A143A0803197E297F298E293A0A55
:10130000031D832984298C290030AF000030AE00F2
:101310000030AD000030AC00AE1796290030AF00B1
:101320000030AE000030AD000030AC003A080319C8
:101330009A299B29A0293B08031D9F29A029A92997
:101340000030AB000030AA000030A9000030A80037
:101350009C2C2808B0003008F3002E080A168A15C5
:101360003D240A128A15740883120313C1007308FE
:10137000C0004008B000B101B201B3013308B900A8
:101380003208B8003108B7003008B6004108B00094
:10139000B101B201B3013308BF003208BE00310809
:1013A000BD003008BC002908B0003008F3002D084B
:1013B0000A168A153D240A128A157408831203132B
:1013C000C1007308C0004008B000B101B201B30110
:1013D0003008B607310803110318013E0319F1293B
:1013E000B707320803110318013E0319F829B8079B
:1013F000330803110318013E0319FF29B9074108F7
:10140000B000B101B201B3013008BC0731080311CB
:101410000318013E03190D2ABD07320803110318F2
:10142000013E0319142ABE07330803110318013EB5
:1014300003191B2ABF072A08B0003008F3002C0844
:101440000A168A153D240A128A157408831203139A
:10145000C1007308C0004008B000B101B201B3017F
:101460003008B607310803110318013E0319392A61
:10147000B707320803110318013E0319402AB807C1
:10148000330803110318013E0319472AB90741081D
:10149000B000B101B201B3013008BC07310803113B
:1014A0000318013E0319552ABD073208031103181A
:1014B000013E03195C2ABE07330803110318013EDD
:1014C0000319632ABF070830B0000310B60DB70D2B
:1014D000B80DB90DB00B652A2908B0003008F3002B
:1014E0002C080A168A153D240A128A1574088312DC
:1014F0000313C1007308C0004008B0004108B100E8
:10150000B201B3013008B607310803110318013ED8
:1015100003198B2AB707320803110318013E031978
:10152000922AB807330803110318013E0319992AB8
:10153000B9072808B0003008F3002D080A168A15EC
:101540003D240A128A15740883120313C10073081C
:10155000C0004008B0004108B100B201B30130083A
:10156000B607310803110318013E0319B82AB7075B
:10157000320803110318013E0319BF2AB8073308C4
:1015800003110318013E0319C62AB9070830B00039
:101590000310B60DB70DB80DB90DB00BC82A280849
:1015A000B0003008F3002C080A168A153D240A12F0
:1015B0008A15740883120313C1007308C000400821
:1015C000B0004108B100B201B3013008B6073108DC
:1015D00003110318013E0319EE2AB707320803115D
:1015E0000318013E0319F52AB8073308031103183D
:1015F000013E0319FC2AB9072908B0003008F3009E
:101600002E080A168A153D240A128A1574088312B8
:101610000313C1007308C0004008B0004108B100C6
:10162000B201B3013008BC07310803110318013EB1
:1016300003191B2BBD07320803110318013E0319C0
:10164000222BBE07330803110318013E0319292B6F
:10165000BF072A08B0003008F3002D080A168A15C3
:101660003D240A128A15740883120313C1007308FB
:10167000C0004008B0004108B100B201B301300819
:10168000BC07310803110318013E0319482BBD079D
:10169000320803110318013E03194F2BBE0733080C
:1016A00003110318013E0319562BBF072A08B00087
:1016B0003008F3002E080A168A153D240A128A15EE
:1016C000740883120313C1007308C0004008B000FF
:1016D0004108B100B201B30108300310B00DB10DE3
:1016E000B20DB30DFF3E031D6D2B3008BC07310852
:1016F00003110318013E03197E2BBD0732080311A5
:101700000318013E0319852BBE0733080311031884
:10171000013E03198C2BBF073608B0003708B10013
:101720003808B2003908B30018300310B30CB20CFB
:10173000B10CB00CFF3E031D952B3008BC073108DF
:1017400003110318013E0319A62BBD07320803112C
:101750000318013E0319AD2BBE073308031103180C
:10176000013E0319B42BBF070830B0000310B60DBB
:10177000B70DB80DB90DB00BB62B3B083A07B0004A
:10178000B101B10D3008823EC00031080318013E9E
:10179000FF3EC100E82B0130B0000310BC0DBD0DB1
:1017A000BE0DBF0DB00BCD2BB91FD72BD82BD92B0E
:1017B0003C140130B0000310B60DB70DB80DB90DD3
:1017C000B00BDB2BFF30C0070318C10AFF30C10785
:1017D000BE1FEB2BEC2BCB2BBA01B91FF02BF12B3F
:1017E0000D2CFF303605B000FF303705B100FF305B
:1017F0003805B2007F303905B300330832043104B4
:1018000030040319042C052C082CBA01BA0A0D2C3B
:101810003C1C0B2C0C2C0D2C052C3A080319112CFC
:10182000122C432C0130BC07003003180130BD07D7
:10183000003003180130BE07003003180130BF0725
:101840003F1C232C242C432C3C08B0003D08B10045
:101850003E08B2003F08B3000130B400330DB30CB2
:10186000B20CB10CB00CB40B2E2C3308BF003208F4
:10187000BE003108BD003008BC000130C0070318AD
:10188000C10A0030C1074108803AFF0080307F0262
:10189000031D4C2CFF304002031C4F2C502C5B2CA2
:1018A0007F3083120313BF008030BE000030BD00C4
:1018B0000030BC00902C831203134108803AFF00D3
:1018C00080307F02031D662C013040020318692C12
:1018D0006A2C762C003083120313BF000030BE0048
:1018E0000030BD000030BC00B501902C8312031302
:1018F0004008B0003008BB00FF30BC05FF30BD051C
:101900007F30BE050030BF053B1C872C882C892CFE
:10191000BE173B08B0000310300CB1003108BF0007
:101920003508B0003008BF043F08AB003E08AA00ED
:101930003D08A9003C08A800080083120313D40046
:10194000D41FA32CA42C532ED409D40A5408803AB3
:10195000123E031CAC2CAD2C972D0A30A000003099
:10196000A1005408F500F601F51BF6036430F300FE
:101970000030F4000A168A151F260A128A15740808
:1019800083120313A3007308A2000A168A1107200A
:101990000A128A15831203132008C60001300310AF
:1019A000C60DFF3E031DCF2C0310460D593E84008B
:1019B0000A168A150A200A128A15C7000A168A15FD
:1019C0000A200A128A15C8000A168A150A200A1265
:1019D0008A15C9000A168A150A200A128A15CA0031
:1019E0004A08AB004908AA004808A9004708A8000F
:1019F0006430A0000030A1005408A200A301A21B83
:101A0000A3030A168A1107200A128A1583120313E8
:101A10002008CB0001300310CB0DFF3E031D0B2D22
:101A200003104B0D7D3E84000A168A150A200A1207
:101A30008A15CC000A168A150A200A128A15CD00CA
:101A40000A168A150A200A128A15CE000A168A1565
:101A50000A200A128A15CF004F08AF004E08AE00C8
:101A60004D08AD004C08AC000A128A153C210A1240
:101A70008A15831203132B08D3002A08D2002908E1
:101A8000D1002808D0000A30F3000030F4005408D8
:101A9000F500F601F51BF6030A168A151F260A1231
:101AA0008A15730883120313C60001300310C60D94
:101AB000FF3E031D562D0310460D353E84000A16C9
:101AC0008A150A200A128A15C7000A168A150A20E2
:101AD0000A128A15C8000A168A150A200A128A15DF
:101AE000C9000A168A150A200A128A15CA004A086D
:101AF000AB004908AA004808A9004708A8005308F5
:101B0000AF005208AE005108AD005008AC000A12F8
:101B10008A153C210A128A15831203132B08C5006B
:101B20002A08C4002908C3002808C200FF2F54084F
:101B3000803A753E031C9D2D9E2D262E0A30F30003
:101B40000030F4005408F500F601F51BF6030A1600
:101B50008A151F260A128A15730883120313C600FA
:101B600001300310C60DFF3E031DB12D0310460DBD
:101B7000353E84000A168A150A200A128A15C70003
:101B80000A168A150A200A128A15C8000A168A152A
:101B90000A200A128A15C9000A168A150A200A1292
:101BA0008A15CA004A08AB004908AA004808A900DB
:101BB0004708A8000A30A0000030A1005408A20085
:101BC000A301A21BA3030A168A1107200A128A1571
:101BD000831203132008CB0001300310CB0DFF3E0E
:101BE000031DED2D03104B0D593E84000A168A1576
:101BF0000A200A128A15CC000A168A150A200A122F
:101C00008A15CD000A168A150A200A128A15CE00F6
:101C10000A168A150A200A128A15CF004F08AF004B
:101C20004E08AE004D08AD004C08AC000A128A15F3
:101C30003C210A128A15831203132B08C5002A08B7
:101C4000C4002908C3002808C200FF2F5408C6009A
:101C500001300310C60DFF3E031D292E0310460D53
:101C6000353E84000A168A150A200A128A15C70012
:101C70000A168A150A200A128A15C8000A168A1539
:101C80000A200A128A15C9000A168A150A200A12A1
:101C90008A15CA004A08C5004908C4004808C3009C
:101CA0004708C200FF2F5408803A123E031C592EE9
:101CB0005A2E442F0A30A0000030A1005408F5002D
:101CC000F601F51BF6036430F3000030F4000A1649
:101CD0008A151F260A128A15740883120313A3009B
:101CE0007308A2000A168A1107200A128A158312A5
:101CF00003132008C60001300310C60DFF3E031D6C
:101D00007C2E0310460D253E84000A168A150A20F3
:101D10000A128A15C7000A168A150A200A128A159D
:101D2000C8000A168A150A200A128A15C9000A165E
:101D30008A150A200A128A15CA004A08AB00490807
:101D4000AA004808A9004708A8006430A000003095
:101D5000A1005408A200A301A21BA3030A168A1122
:101D600007200A128A15831203132008CB000130C2
:101D70000310CB0DFF3E031DB82E03104B0D493E43
:101D800084000A168A150A200A128A15CC000A163F
:101D90008A150A200A128A15CD000A168A150A2009
:101DA0000A128A15CE000A168A150A200A128A1506
:101DB000CF004F08AF004E08AE004D08AD004C08F4
:101DC000AC000A128A153C210A128A1583120313E9
:101DD0002B08D3002A08D2002908D1002808D000F7
:101DE0000A30F3000030F4005408F500F601F51B4A
:101DF000F6030A168A151F260A128A15730883121B
:101E00000313C60001300310C60DFF3E031D032F50
:101E10000310460D013E84000A168A150A200A1294
:101E20008A15C7000A168A150A200A128A15C800E0
:101E30000A168A150A200A128A15C9000A168A1576
:101E40000A200A128A15CA004A08AB004908AA00EB
:101E50004808A9004708A8005308AF005208AE0080
:101E60005108AD005008AC000A128A153C210A1234
:101E70008A15831203132B08C5002A08C4002908F9
:101E8000C3002808C200FF2F5408803A753E031C87
:101E90004A2F4B2FD32F0A30F3000030F4005408A0
:101EA000F500F601F51BF6030A168A151F260A121D
:101EB0008A15730883120313C60001300310C60D80
:101EC000FF3E031D5E2F0310460D013E84000A16DF
:101ED0008A150A200A128A15C7000A168A150A20CE
:101EE0000A128A15C8000A168A150A200A128A15CB
:101EF000C9000A168A150A200A128A15CA004A0859
:101F0000AB004908AA004808A9004708A8000A3001
:101F1000A0000030A1005408A200A301A21BA3034B
:101F20000A168A1107200A128A1583120313200841
:101F3000CB0001300310CB0DFF3E031D9A2F031081
:101F40004B0D253E84000A168A150A200A128A15AE
:101F5000CC000A168A150A200A128A15CD000A1624
:101F60008A150A200A128A15CE000A168A150A2036
:101F70000A128A15CF004F08AF004E08AE004D0878
:101F8000AD004C08AC000A128A153C210A128A15D1
:101F9000831203132B08C5002A08C4002908C300B4
:101FA0002808C200FF2F5408C60001300310C60DD8
:101FB000FF3E031DD62F0310460D013E84000A1676
:101FC0008A150A200A128A15C7000A168A150A20DD
:101FD0000A128A15C8000A168A150A200A128A15DA
:101FE000C9000A168A150A200A128A15CA004A0868
:101FF000C5004908C4004808C3004708C2000800DB
:10200600831203139F14080083120313A501A11F53
:102016000D280E281528A009A109A00A0319A10A4E
:10202600A501A50AA31F182819282228A209A30971
:10203600A20A0319A30A0130FA007A08A506A60126
:10204600A70120082104031929282A286128A401A8
:10205600A40A382801300310A00DA10DFF3E031D70
:102066002E280130FA007A08A407A11F3B283C2835
:102076002D2801300310A60DA70DFF3E031D3D2898
:1020860021082302031D492820082202031C4C288C
:102096004D2854282008A2022108031CA303A302EA
:1020A600261401300310A10CA00CFF3E031D552879
:1020B6000130A402031D602861283C282508031965
:1020C600652866286B28A609A709A60A0319A70A80
:1020D6002708A1002608A000080083120313A00009
:1020E60020080319772878288C28F61F7B287C2857
:1020F6008C287309A2007409A3007509A400760947
:10210600A500A20A0319A30A0319A40A0319A50A1A
:1021160094287608A5007508A4007408A30073081F
:10212600A2007608750474047304031D9B289C287A
:10213600A5280030F6000030F5000030F40000302D
:10214600F3002B299630F7007708A100B728013055
:10215600F7007708A10701300310A50CA40CA30C07
:10216600A20CFF3E031DAF28FE302505031DBC282B
:10217600BD28AA28D9280130F7007708A107013021
:10218600A207003003180130A307003003180130FE
:10219600A407003003180130A50701300310A50C71
:1021A600A40CA30CA20CFF3E031DD128FF3025056D
:1021B600031DDE28DF28BE28EB280130A1020130EE
:1021C600F7000310A20DA30DA40DA50DF70BE4282F
:1021D600A41BEE28EF28F528023021020318F42864
:1021E600F528E0282118F828F9280129FF30A2054A
:1021F600FF30A3057F30A405FF30A5050310A10C11
:102206002108F700F801F901FA0118300310F70D5B
:10221600F80DF90DFA0DFF3E031D09297708A204F2
:102226007808A3047908A4047A08A50420080319E9
:102236001D291E292329F61F212922292329A5170D
:102246002508F6002408F5002308F4002208F30008
:102256000800730883120313A0007408A100750810
:10226600A2000310210D220DA3002308A9002908AE
:10227600031D3E293F2948290030F6000030F500AD
:102286000030F4000030F300E8297708A000780851
:10229600A1007908A2000310210D220DA300230836
:1022A600A8002808031D582959295A293F29F41737
:1022B600FF30F305FF30F4050030F505F817FF3061
:1022C600F705FF30F8050030F9050030A7000030AB
:1022D600A6000030A5000030A4007F30A902983087
:1022E6002807A0002008A9021830A0002008A8008E
:1022F6000130A0000310A40DA50DA60DA70DA00B7F
:102306007D2979087502031D8E2978087402031D3C
:102316008E2977087302031C912992299D29770833
:10232600F3027808031C780FF4027908031C790A73
:10233600F502241401300310F30DF40DF50DFF3EE4
:10234600031D9E290130A802031DAA29AB297B295A
:10235600A91FAE29AF29C9292908803A973E031833
:10236600B529B629B7293F2901300310A70CA60CB9
:10237600A50CA40CFF3E031DB8290130A0002008BF
:10238600A907031DC729C829B729E029183029023A
:10239600031CCE29CF29DB293F290130A0000310D9
:1023A600A40DA50DA60DA70DA00BD2290130A902DB
:1023B6002908031DDF29E029D0292708F600260869
:1023C600F5002508F4002408F30008000310750D35
:1023D600760D83120313A0002008A6002608031D0D
:1023E600F529F629FF290030F6000030F500003007
:1023F600F4000030F300A62A0310790D7A0DA00030
:102406002008A5002508031D092A0A2A0B2AF629F1
:10241600F517FF30F305FF30F405FF30F505003002
:10242600F605F917FF30F705FF30F805FF30F90517
:102436000030FA050030A4000030A3000030A200EE
:102446000030A1007F30A602A0302507A00020089A
:10245600A6022030A0002008A5000130A00003102D
:10246600A10DA20DA30DA40DA00B322A7A087602A7
:10247600031D472A79087502031D472A7808740246
:10248600031D472A77087302031C4A2A4B2A5A2A35
:102496007708F3027808031C780FF4027908031C06
:1024A600790FF5027A08031C7A0FF602211401301F
:1024B600A0000310F30DF40DF50DF60DA00B5C2A2C
:1024C6000130A502031D682A692A302AA61F6C2A34
:1024D6006D2A872A2608803A9F3E0318732A742A93
:1024E600752AF62901300310A40CA30CA20CA10C2A
:1024F600FF3E031D762A0130A0002008A607031D13
:10250600852A862A752A9E2A20302602031C8C2AB2
:102516008D2A992AF6290130A0000310A10DA20DDB
:10252600A30DA40DA00B902A0130A6022608031DB8
:102536009D2A9E2A8E2A2408F6002308F5002208E2
:10254600F4002108F3000800F800C22A83120313DE
:102556009F131F131E2B831203139F131F171E2B6C
:10256600831203139F171F131E2B831203139F1728
:102576001F171E2B831203139F131F171E2B78087A
:10258600F600F7017708003A0319CA2ABD2A760829
:10259600003A0319A92A013A0319AE2A033A031984
:1025A600B32A013A0319B82ABD2A1F119F111F1217
:1025B6009F12522B1F159F111F129F12522B1F1174
:1025C6009F151F129F12522B1F159F151F129F1228
:1025D600522B1F119F111F169F12522B1F159F1151
:1025E6001F169F12522B1F119F151F169F12522B3B
:1025F6001F159F151F169F12522B1F119F111F1279
:102606009F16522B1F159F111F129F16522B1F111B
:102616009F151F129F16522B1F159F151F129F16CF
:10262600522B1F119F111F169F16522B1F159F11FC
:102636001F169F16522B7308F600F7017708003A0B
:102646000319262B522B7608003A0319D82A013A89
:102656000319DD2A033A0319E22A013A0319E72A84
:10266600073A0319EC2A013A0319F12A033A031926
:10267600F62A013A0319FB2A0F3A0319002B013AED
:102686000319052B033A03190A2B013A03190F2BD9
:10269600073A0319142B013A0319192B522B1F144D
:1026A6007403031D572B582B5E2B0C138316031331
:1026B6000C170B178B17750C83160313031C9F132C
:1026C60003189F171F129F12831203139F140800EB
:1026D60083120313D5006E305502031C732B742B23
:1026E600832C3F30AB000030AA000030A900003038
:1026F600A8006430A0000030A1005508C600C7013C
:102706004608A2004708A3000A168A15E6240A16F8
:102716008A11831203132008C80001300310C80D64
:10272600FF3E031D912B0310480D7D3E84000A16C3
:102736008A150A200A168A11C9000A168A150A205D
:102746000A168A11CA000A168A150A200A168A115A
:10275600CB000A168A150A200A168A11CC004C08E4
:10276600AF004B08AE004A08AD004908AC000A129B
:102776008A153C210A168A11831203132B08D400EA
:102786002A08D3002908D2002808D1000A30A00060
:102796000030A1005508C600C7014608F5004708E5
:1027A600F6006430F3000030F4000A168A15662439
:1027B6000A168A11740883120313A3007308A20071
:1027C6000A168A15E6240A168A11831203132008AC
:1027D600C80001300310C80DFF3E031DED2B03108A
:1027E600480D593E84000A168A150A200A168A11CF
:1027F600C9000A168A150A200A168A11CA000A167C
:102806008A150A200A168A11CB000A168A150A208A
:102816000A168A11CC004C08AB004B08AA004A08DD
:10282600A9004908A8005408AF005308AE00520892
:10283600AD005108AC000A128A153C210A168A110D
:10284600831203132B08D0002A08CF002908CE00D4
:102856002808CD000A30F3000030F4005508C60001
:10286600C7014608F5004708F6000A168A156624C9
:102876000A168A11730883120313C8000130031065
:10288600C80DFF3E031D422C0310480D353E840043
:102896000A168A150A200A168A11C9000A168A1506
:1028A6000A200A168A11CA000A168A150A200A166A
:1028B6008A11CB000A168A150A200A168A11CC003C
:1028C6004C08AB004B08AA004A08A9004908A80012
:1028D6005008AF004F08AE004E08AD004D08AC00E2
:1028E6000A128A153C210A168A11831203132B0831
:1028F600C5002A08C4002908C3002808C200772D8D
:102906000B305502031C882C892C342D3F30AB002C
:102916000030AA000030A9000030A8000A30A0004C
:102926000030A1005508C600C7014608A2004708A6
:10293600A3000A168A15E6240A168A1183120313BF
:102946002008C80001300310C80DFF3E031DA62C49
:102956000310480D593E84000A168A150A200A16E5
:102966008A11C9000A168A150A200A168A11CA008F
:102976000A168A150A200A168A11CB000A168A1523
:102986000A200A168A11CC004C08AF004B08AE008C
:102996004A08AD004908AC000A128A153C210A16FD
:1029A6008A11831203132B08D4002A08D30029089E
:1029B600D2002808D1000A30F3000030F400550890
:1029C600C600C7014608F5004708F6000A168A152C
:1029D60066240A168A11730883120313C80001308D
:1029E6000310C80DFF3E031DF32C0310480D353EA2
:1029F60084000A168A150A200A168A11C9000A16C0
:102A06008A150A200A168A11CA000A168A150A2089
:102A16000A168A11CB000A168A150A200A168A1186
:102A2600CC004C08AB004B08AA004A08A90049088C
:102A3600A8005408AF005308AE005208AD00510874
:102A4600AC000A128A153C210A168A118312031356
:102A56002B08C5002A08C4002908C3002808C2009C
:102A6600772D3F30AB000030AA000030A9000030BF
:102A7600A8005508C60001300310C60DFF3E031D11
:102A86003F2D0310460D353E84000A168A150A208E
:102A96000A168A11C7000A168A150A200A168A110A
:102AA600C8000A168A150A200A168A11C9000A16CB
:102AB6008A150A200A168A11CA004A08AF00490870
:102AC600AE004808AD004708AC000A128A153C2142
:102AD6000A168A11831203132B08C5002A08C4009C
:102AE6002908C3002808C2000800831203135908E6
:102AF6008039DE005E08E6005908DE005E07DF006A
:102B06005F08E800D81F882D892D8A2D681468086B
:102B160003198E2D8F2D9F2D680A031D932D942D3D
:102B26009C2D0030D9000030D8000030D70000308E
:102B3600D600D817D901A72D0030D9000030D8000B
:102B46000030D7000030D6005D088039DE005E0810
:102B5600E700670866060319B12DB22DB32D661777
:102B66005D08DE005E07DF005F08E700DC1FBC2DA6
:102B7600BD2DBE2D671467080319C22DC32DD32D95
:102B8600670A031DC72DC82DD02D0030DD0000308B
:102B9600DC000030DB000030DA00DC17DD01DB2D65
:102BA6000030DD000030DC000030DB000030DA00F1
:102BB600680867020318E02DE12D252E661FE42D17
:102BC600E52DE92D8030DE005E08E6066808DE00A9
:102BD6005E08E9006708DE005E08E8006908DE00B6
:102BE6005E08E7005608DE005E08E9005A08DE00C7
:102BF6005E08D6006908DE005E08DA005708DE00C7
:102C06005E08E9005B08DE005E08D7006908DE00A2
:102C16005E08DB005808DE005E08E9005C08DE009E
:102C26005E08D8006908DE005E08DC005908DE0090
:102C36005E08E9005D08DE005E08D9006908DE006E
:102C46005E08DD00E9016708DE00DF015F08E100DC
:102C560068085E02E000031CE1036108803AFF0099
:102C660080307F02031D392E1A306002031C3C2E71
:102C76003D2E7A2E8312031359085804570456041E
:102C8600031D462E482E0130492E0030DE005E0818
:102C9600E9000030D9000030D8000030D7000030FD
:102CA600D6006708DE005E08E800822E691C5C2EEE
:102CB6005D2E662E6908DE0003105E0C0138DF000B
:102CC6005F08E900682E0310E90C561C6B2E6C2E6B
:102CD6006D2EE9170130DE00590DD90CD80CD70C32
:102CE600D60CDE0B6F2E0130DE005E08E80783127D
:102CF600031367086802031C812E822E592E661B59
:102D0600852E862ED12E6808031D8A2E8B2E942E94
:102D16000030D9000030D8000030D7000030D6008F
:102D2600FF2F5A08D6075B0803110318013E031943
:102D36009D2ED7075C0803110318013E0319A42E24
:102D4600D8075D0803110318013E0319AB2ED907F6
:102D5600591CAE2EAF2E852F691CB22EB32EBC2E5B
:102D66006908DE0003105E0C0138DF005F08E90029
:102D7600BE2E0310E90C561CC12EC22EC32EE91717
:102D86000130DE00590DD90CD80CD70CD60CDE0B51
:102D9600C52E0130DE005E08E807852F5908803A07
:102DA600FF005D08803A7F02031DE32E5C0858028F
:102DB600031DE32E5B085702031DE32E5A08560235
:102DC6000318E62EE72E3F2FFF30DE00FF30DF0030
:102DD600FF30E000FF30E1005A08E2005B08E30044
:102DE6005C08E4005D08E5005608E2025708031C8B
:102DF600570FFE2EFF2EE3025808031C580F042F10
:102E0600052FE4025908031C590F0A2F0B2FE50260
:102E16006208DE0763080318630F122F132FDF07FC
:102E260064080318640F182F192FE00765080318A4
:102E3600650AE1076108D9006008D8005F08D70075
:102E46005E08D6008030DE005E08E606E909E90A7B
:102E56006908031D2F2F302F4D2F0130D607003064
:102E660003180130D707003003180130D8070030A7
:102E760003180130D9074D2F5A08D6025B08031CE8
:102E86005B0FD7025C08031C5C0FD8025D08031CAD
:102E96005D0FD9025908580457045604031D542FD0
:102EA600552F812F6908031D592F5A2F812F003066
:102EB600D9000030D8000030D7000030D600FF2FF0
:102EC6000130DE000310D60DD70DD80DD90DDE0B5F
:102ED600652FE91F6F2F702F712F5614691C742FE1
:102EE600752F782F0314E90D7A2F0310E90D680862
:102EF60003197E2F7F2F812F0130E802D81F842FE0
:102F0600852F632FE701E91F892F8A2F982F6908DC
:102F16007F3903198F2F902F932FE701E70A982FF8
:102F2600561C962F972F982F902F670803199C2FC2
:102F36009D2FD12F0130D607003003180130D70757
:102F4600003003180130D807003003180130D907C4
:102F5600591CAE2FAF2FD12F5608DE005708DF00C1
:102F66005808E0005908E1000130E200610DE10C6B
:102F7600E00CDF0CDE0CE20BB92F6108D90060080B
:102F8600D8005F08D7005E08D600680A0319CC2F60
:102F9600CD2FD12F0130DE005E08E807680A03193D
:102FA600D52FD62FDB2F6808031DDA2FDB2FE92F4D
:102FB6000030D9000030D8000030D7000030D600ED
:102FC6006808031DE72FE82FE92FE601681CEC2FA0
:102FD600ED2FEF2FD817F32F7F30DE005E08D805D0
:102FE6006808DE0003105E0CDF005F08D900E61FEC
:102FF600FD2FFE2FFF2FD9170800FF1B0A2883136A
:103006007F1883170008840A0319FF0A080018307E
:103016008A000408840A82070034003400348034AD
:103026003F34003400342034413400340034C83492
:103036004234003400347A344434003440341C348E
:10304600463400345034C3344734003424347434A2
:1030560049348034963418344B342034BC34BE346E
:103066004C3428346B346E344E34F934023415340F
:103076005034EC347834AD346034CA34F2344934E4
:1030860071340034003480343F34CD34CC34CC3405
:103096003D340A34D73423343C346F341234833409
:1030A6003A341734B734D1343834AC34C5342734D1
:1030B6003734BD343734863435349534BF34D6345A
:1030C60033347734CC342B3432345F34703489342F
:1030D6003034FF34E634DB342E340834E5343C3403
:1030E6001E3460344234A2340D34013400340034CA
:1030F60000340A34003400340034643400340034BC
:103106000034E834033400340034103427340034F7
:103116000034A034863401340034403442340F3451
:10312600003480349634983400340034E134F53475
:1031360005340034CA349A343B345634313420349E
:1031460020342034563432342034203443346F341F
:103156006E3474342E340034253431342E34323403
:043166006634003497
:1036740064008001840A04060319003404063B2B09
:1036840076087504740473040319492B4A2B4C2BD4
:103694008030F6060800F400F3013A30740203188F
:1036A400542B552B5D2B30307402031C5A2B5B2B8F
:1036B4005D2BF301F30A730C0800F5008312031366
:1036C4008812750886008817672B682B0000831200
:1036D400031388130730F4007D30F300F30B702BD1
:1036E400F40B702B0800F500831203138816750879
:1036F400860088170D30F300F30B7E2B831203131F
:1037040088130730F4007D30F300F30B872BF40BA0
:10371400872B0800033083160313850083160317D1
:1037240088010330880089018316031386018312FC
:10373400031386018316031388018312031388017C
:1037440085010800F8007803031DA92BAA2BB62BCA
:1037540076087F3EF7007708F90079080A168A157B
:103764005F230A168A15C72B02307806031DBB2B6C
:10377400BC2BC72B7608BF3EF7007708F900790801
:103784000A168A155F230A168A150800F701F8013C
:10379400731CCD2BCE2BD42B7508F7070318F80A0E
:1037A4007608F80701300310F50DF60DFF3E031DF2
:1037B400D52B01300310F40CF30CFF3E031DDC2B5E
:1037C40073087404031DE72BE82BCA2B7808F40054
:1037D4007708F3000800831203130C1FF22BF32B5A
:1037E4000D2C0C1383160313D401D40A8312031370
:1037F4001F19FD2BFE2B082C1E08F00070088316E1
:103804000313D500831203131F150D2C1E08F0009B
:103814007008EF001F1172088A00710E8300FE0EFB
:103824007E0E0900F4008316031787118316031311
:10383400181518128312031398177403031D232CED
:10384400242C2C2C831603138C16831203138C1232
:103854008B170B1718101816831603139816730377
:10386400031D352C362C3C2C0C16831203130C121E
:103874008B170B17080083120313A400A001A101E6
:103884007308F500F6017508A2007608A300241C4D
:103894004C2C4D2C532C2208A0070318A10A2308F2
:1038A400A10701300310A20DA30DFF3E031D542CEC
:1038B4000310A40C2408031D602C612C492C21083E
:1038C400F4002008F30008007308740403196B2C37
:1038D4006C2C9B2CF801F80A7A2C01300310F30DA0
:1038E400F40DFF3E031D702C0130F7007708F80734
:1038F400F41F7D2C7E2C6F2C74087602031D842CFF
:1039040073087502031C872C882C8E2C7308F5020F
:103914007408031CF603F60201300310F40CF30CD4
:10392400FF3E031D8F2C0130F802031D9A2C9B2CA3
:103934007E2C7608F4007508F30008008312031344
:10394400A001A101C92C20087607F9007708F80026
:103954000318F80AA01FAF2CF8037808FA007A08B5
:1039640083120313FF00790884000A168A150020C5
:103974000A168A150A168A1575230A168A1501303D
:1039840083120313A0070318A10A0030A10720081B
:103994007607F9007708F8000318F80AA01FD32C5B
:1039A400F8037808FA007A0883120313FF007908F1
:1039B40084000A168A1500200A168A15003A031D87
:1039C400E42CE52CA52C080083120313A401A50103
:1039D400200821040319EF2CF02C272DA601A60A98
:1039E400FE2C01300310A00DA10DFF3E031DF42C8D
:1039F4000130F9007908A607A11F012D022DF32C2F
:103A040001300310A40DA50DFF3E031D032D210855
:103A14002302031D0F2D20082202031C122D132D37
:103A24001A2D2008A2022108031CA303A3022414B4
:103A340001300310A10CA00CFF3E031D1B2D01300F
:103A4400A602031D262D272D022D2508A1002408DA
:103A5400A00008000030730583120313A000003097
:103A64007405A10080307505A2007F307605A3009F
:103A74002308220421042004031D412D422D4A2D34
:103A84000030F6000030F5000030F4000030F300A0
:103A940000307705A00000307805A100803079055A
:103AA400A2007F307A05A300230822042104200405
:103AB400031D5D2D5E2D662D0030FA000030F900E7
:103AC4000030F8000030F7007A087606031D742DE4
:103AD40079087506031D742D78087406031D742D6A
:103AE400770873060319772D782D7A2D03107B2D13
:103AF40003140800803083160313A30627088312D7
:103B04000313D90083160313260883120313D80062
:103B140083160313250883120313D7008316031394
:103B2400240883120313D600831603132308831275
:103B34000313DD0083160313220883120313DC002E
:103B440083160313210883120313DB008316031364
:103B5400200883120313DA000A168A1178250A163C
:103B64008A1583120313590883160313A3008312BF
:103B74000313580883160313A20083120313570870
:103B840083160313A1008312031356088316031329
:103B9400A00008008312031386011430F700793063
:103BA400F600F60BD32DF70BD32DD82D30300A1693
:103BB4008A155F230A168A150730F7007D30F60050
:103BC400F60BE22DF70BE22D30300A168A155F232F
:103BD4000A168A153530F600F60BEE2D30300A162B
:103BE4008A155F230A168A153530F600F60BF82D70
:103BF40002300A168A155F230A168A1538300A1607
:103C04008A155F230A168A1508300A168A155F2357
:103C14000A168A1501300A168A155F230A168A15B0
:103C240006300A168A155F230A168A150C300A16FE
:103C34008A155F230A168A150800F901F61F232E38
:103C4400242E2B2EF509F609F50A0319F60AF901B3
:103C5400F90AF41F2E2E2F2E342EF309F409F30A39
:103C64000319F40A730874040319392E3A2E692EC1
:103C7400F801F80A482E01300310F30DF40DFF3E4D
:103C8400031D3E2E0130F7007708F807F41F4B2E72
:103C94004C2E3D2E74087602031D522E73087502B5
:103CA400031C552E562E5C2E7308F5027408031C53
:103CB400F603F60201300310F40CF30CFF3E031D6F
:103CC4005D2E0130F802031D682E692E4C2E7908F2
:103CD40003196D2E6E2E732EF509F609F50A0319D4
:103CE400F60A7608F4007508F30008000030831221
:103CF4000313A4000030A3000030A2000030A10090
:103D040076087504740473040319892E8A2ED72E39
:103D1400A501A50A9A2E0130A0000310F30DF40D9D
:103D2400F50DF60DA00B8F2E0130A0002008A5077D
:103D3400F61F9D2E9E2E8D2E0130A0000310A10D86
:103D4400A20DA30DA40DA00BA02E76087A02031DCC
:103D5400B52E75087902031DB52E74087802031D6B
:103D6400B52E73087702031CB82EB92EC82E73081B
:103D7400F7027408031C740FF8027508031C750F0E
:103D8400F9027608031C760FFA022114013003109D
:103D9400F60CF50CF40CF30CFF3E031DC92E013098
:103DA400A502031DD62ED72E9E2E2408F600230826
:103DB400F5002208F4002108F30008000310831220
:103DC4000313570D580DD9005908DF005F08031D70
:103DD400EC2EED2EF62E0030D8000030D700003047
:103DE400D6000030D5005B2F5508D9005608DA00FC
:103DF4005708DB005808DC001F300310DC0CDB0C18
:103E0400DA0CD90CFF3E031DFF2E5908DD005D08B6
:103E1400DE00D717FF30D505FF30D605FF30D705B4
:103E24000030D8059630DF02DF1F192F1A2F342FE8
:103E34005F08803A973E0318202F212F222FED2E62
:103E440001300310D80CD70CD60CD50CFF3E031D43
:103E5400232F0130D9005908DF07031D322F332FD8
:103E6400222F4B2F20305F02031C392F3A2F462F6D
:103E7400ED2E0130D9000310D50DD60DD70DD80D78
:103E8400D90B3D2F0130DF025F08031D4A2F4B2F52
:103E94003B2F5E0803194F2F502F5B2FD509D609EE
:103EA400D709D809D50A0319D60A0319D70A031959
:103EB400D80A08000030730583120313A0000030F1
:103EC4007405A10080307505A2007F307605A3003B
:103ED4002308220421042004031D712F722F7A2F3A
:103EE4000030F6000030F5000030F4000030F3003C
:103EF40000307705A00000307805A10080307905F6
:103F0400A2007F307A05A3002308220421042004A0
:103F1400031D8D2F8E2F962F0030FA000030F900EC
:103F24000030F8000030F700F61F992F9A2FBE2FAB
:103F34000030A0000030A1000030A2008030A300B7
:103F44007308A0027408031C740FA92FAA2FA102DE
:103F54007508031C750FAF2FB02FA2027608031C3F
:103F6400760FB52FB62FA3022308F6002208F5001A
:103F74002108F4002008F300FA1FC12FC22FE62FF6
:103F84000030A0000030A1000030A2008030A30067
:103F94007708A0027808031C780FD12FD22FA10232
:103FA4007908031C790FD72FD82FA2027A08031C93
:103FB4007A0FDD2FDE2FA3022308FA002208F9006E
:103FC4002108F8002008F7008030F6068030FA0651
:103FD4007A087602031DF82F79087502031DF82F5D
:103FE40078087402031DF82F770873020318FB2F57
:0C3FF400FC2FFE2F0310FF2F0314080009
:04400E00D4E0FFFFFC
:00000001FF
